:020000040000FA
:100000000A128A1112280134FE00030EF3000408BC
:10001000F4000A08F500831203137F08F6000A12A1
:100020008A156A2C0A128A1115280A128A110320CD
:100030000A128A11F900E501E601E701E801F80179
:1000400083010A128A15FB2E8312031331088039AB
:10005000FF007F08BB003108B6003607FF007F08AD
:10006000C100B01F3428352836284114410803192F
:100070003A283B284A28410A031D3F28402848289F
:100080000030B1000030B0000030AF000030AE00F2
:10009000B01752280030B1000030B0000030AF007F
:1000A0000030AE0035088039FF007F08BB063508F8
:1000B000B6003607FF007F08C000B41F6028612823
:1000C0006228401440080319662867287628400AE9
:1000D000031D6B286C2874280030B5000030B40074
:1000E0000030B3000030B200B4177E280030B500F5
:1000F0000030B4000030B3000030B20040080319F3
:100100008228832888284108031D87288828912869
:100110000030B1000030B0000030AF000030AE0061
:10012000842B2E08FF007F08A00034080A128A15CD
:10013000E0230A128A11831203132108C700200842
:10014000C6004608B600B701B801B9013908BF00BA
:100150003808BE003708BD003608BC004708B600A6
:10016000B701B801B9013908C5003808C40037081B
:10017000C3003608C2002F08FF007F08A000330824
:100180000A128A15E0230A128A1183120313210826
:10019000C7002008C6004608B600B701B801B9017B
:1001A0003608BC07370803110318013E0319D92884
:1001B000BD07380803110318013E0319E028BE07E4
:1001C000390803110318013E0319E728BF07470840
:1001D000B600B701B801B9013608C20737080311E4
:1001E0000318013E0319F528C30738080311031843
:1001F000013E0319FC28C407390803110318013E06
:1002000003190329C5073008FF007F08A000320842
:100210000A128A15E0230A128A1183120313210895
:10022000C7002008C6004608B600B701B801B901EA
:100230003608BC07370803110318013E03192129AA
:10024000BD07380803110318013E03192829BE070A
:10025000390803110318013E03192F29BF07470866
:10026000B600B701B801B9013608C2073708031153
:100270000318013E03193D29C30738080311031869
:10028000013E03194429C407390803110318013E2C
:1002900003194B29C5070830B6000310BC0DBD0D6E
:1002A000BE0DBF0DB60B4D292F08FF007F08A00023
:1002B00032080A128A15E0230A128A1183120313E4
:1002C0002108C7002008C6004608B6004708B70046
:1002D000B801B9013608BC07370803110318013EFD
:1002E00003197329BD07380803110318013E0319C8
:1002F0007A29BE07390803110318013E0319812921
:10030000BF072E08FF007F08A00033080A128A15D5
:10031000E0230A128A11831203132108C700200860
:10032000C6004608B6004708B700B801B90136084C
:10033000BC07370803110318013E0319A029BD07A4
:10034000380803110318013E0319A729BE0739080D
:1003500003110318013E0319AE29BF070830B60088
:100360000310BC0DBD0DBE0DBF0DB60BB0292E0880
:10037000FF007F08A00032080A128A15E0230A1243
:100380008A11831203132108C7002008C6004608FB
:10039000B6004708B700B801B9013608BC073708EE
:1003A00003110318013E0319D629BD0738080311AC
:1003B0000318013E0319DD29BE073908031103188C
:1003C000013E0319E429BF072F08FF007F08A000A2
:1003D00034080A128A15E0230A128A1183120313C1
:1003E0002108C7002008C6004608B6004708B70025
:1003F000B801B9013608C207370803110318013ED6
:100400000319032AC307380803110318013E03190F
:100410000A2AC407390803110318013E0319112AD7
:10042000C5073008FF007F08A00033080A128A15AC
:10043000E0230A128A11831203132108C70020083F
:10044000C6004608B6004708B700B801B90136082B
:10045000C207370803110318013E0319302AC307E6
:10046000380803110318013E0319372AC407390855
:1004700003110318013E03193E2AC5073008FF0087
:100480007F08A00034080A128A15E0230A128A1194
:10049000831203132108C7002008C6004608B600CF
:1004A0004708B700B801B90108300310B60DB70D01
:1004B000B80DB90DFF3E031D552A3608C20737088F
:1004C00003110318013E0319662AC30738080311F4
:1004D0000318013E03196D2AC407390803110318D4
:1004E000013E0319742AC5073C08B6003D08B70051
:1004F0003E08B8003F08B90018300310B90CB80C1A
:10050000B70CB60CFF3E031D7D2A3608C20737081C
:1005100003110318013E03198E2AC307380803117B
:100520000318013E0319952AC4073908031103185B
:10053000013E03199C2AC5070830B6000310BC0D04
:10054000BD0DBE0DBF0DB60B9E2A41084007B6007B
:10055000B701B70D3608823EC60037080318013EC2
:10056000FF3EC700D02A0130B6000310C20DC30DF4
:10057000C40DC50DB60BB52ABF1FBF2AC02AC12A9C
:1005800042140130B6000310BC0DBD0DBE0DBF0DF1
:10059000B60BC32AFF30C6070318C70AFF30C707C8
:1005A000C41FD32AD42AB32AC001BF1FD82AD92AEC
:1005B000F52AFF303C05B600FF303D05B700FF309F
:1005C0003E05B8007F303F05B900390838043704CC
:1005D00036040319EC2AED2AF02AC001C00AF52AD4
:1005E000421CF32AF42AF52AED2A40080319F92AB5
:1005F000FA2A2B2B0130C207003003180130C30741
:10060000003003180130C407003003180130C5075B
:10061000451C0B2B0C2B2B2B4208B6004308B700B4
:100620004408B8004508B9000130BA00390DB90CCA
:10063000B80CB70CB60CBA0B162B3908C500380825
:10064000C4003708C3003608C2000130C6070318CB
:10065000C70A0030C7074708803AFF0080307F0292
:10066000031D342BFF304602031C372B382B432B42
:100670007F3083120313C5008030C4000030C300F4
:100680000030C200782B831203134708803AFF0022
:1006900080307F02031D4E2B013046020318512B80
:1006A000522B5E2B003083120313C5000030C400B0
:1006B0000030C3000030C200BB01782B831203134B
:1006C0004608FF007F08C100FF30C205FF30C305A8
:1006D0007F30C4050030C505411C6F2B702B712B7A
:1006E000C4174108B6000310360CFF007F08C50090
:1006F0003B08FF007F08C5044508B1004408B0006E
:100700004308AF004208AE00080083120313230819
:100710008039FF007F08B0002308A8002807FF00E9
:100720007F08B200A21F952B962B972B321432080C
:1007300003199B2B9C2BAC2B320A031DA02BA12B46
:10074000A92B0030A3000030A2000030A10000302F
:10075000A000A217A301B42B0030A3000030A20018
:100760000030A1000030A00027088039FF007F087A
:10077000B100310830060319BE2BBF2BC02B301738
:100780002708A8002807FF007F08B100A61FC92B73
:10079000CA2BCB2B311431080319CF2BD02BE02BD4
:1007A000310A031DD42BD52BDD2B0030A7000030E0
:1007B000A6000030A5000030A400A617A701E82B72
:1007C0000030A7000030A6000030A5000030A400D3
:1007D000320831020318ED2BEE2B322C301FF12B97
:1007E000F22BF62B8030FF007F08B0063208FF00A6
:1007F0007F08B3003108FF007F08B2003308FF0014
:100800007F08B1002008FF007F08B3002408FF0024
:100810007F08A0003308FF007F08A4002108FF0024
:100820007F08B3002508FF007F08A1003308FF0000
:100830007F08A5002208FF007F08B3002608FF00FC
:100840007F08A2003308FF007F08A6002308FF00EE
:100850007F08B3002708FF007F08A3003308FF00CC
:100860007F08A700B3013108A800A9012908AB003F
:1008700032082802AA00031CAB032B08803AFF00B1
:1008800080307F02031D462C1A302A02031C492C9B
:100890004A2C872C831203132308220421042004EA
:1008A000031D532C552C0130562C0030FF007F08BF
:1008B000B3000030A3000030A2000030A1000030DF
:1008C000A0003108FF007F08B2008F2C331C692C78
:1008D0006A2C732C3308A8000310280C0138FF0081
:1008E0007F08B300752C0310B30C201C782C792CD6
:1008F0007A2CB3170130A800230DA30CA20CA10C75
:10090000A00CA80B7C2C0130FF007F08B2078312DB
:10091000031331083202031C8E2C8F2C662C301BE3
:10092000922C932CDE2C3208031D972C982CA12C92
:100930000030A3000030A2000030A1000030A00071
:100940000C2E2408A007250803110318013E0319E3
:10095000AA2CA107260803110318013E0319B12C84
:10096000A207270803110318013E0319B82CA30797
:10097000231CBB2CBC2C922D331CBF2CC02CC92C8F
:100980003308A8000310280C0138FF007F08B300CB
:10099000CB2C0310B30C201CCE2CCF2CD02CB31797
:1009A0000130A800230DA30CA20CA10CA00CA80BD5
:1009B000D22C0130FF007F08B207922D2308803A25
:1009C000FF002708803A7F02031DF02C2608220230
:1009D000031DF02C25082102031DF02C2408200201
:1009E0000318F32CF42C4C2DFF30A800FF30A90085
:1009F000FF30AA00FF30AB002408AC002508AD0092
:100A00002608AE002708AF002008AC022108031C0E
:100A1000210F0B2D0C2DAD022208031C220F112DCE
:100A2000122DAE022308031C230F172D182DAF0221
:100A30002C08A8072D0803182D0F1F2D202DA907FE
:100A40002E0803182E0F252D262DAA072F08031870
:100A50002F0AAB072B08A3002A08A2002908A1002F
:100A60002808A0008030FF007F08B006B309B30A51
:100A70003308031D3C2D3D2D5A2D0130A0070030B9
:100A800003180130A107003003180130A20700301D
:100A900003180130A3075A2D2408A0022508031CBF
:100AA000250FA1022608031C260FA2022708031CFB
:100AB000270FA3022308220421042004031D612D13
:100AC000622D8E2D3308031D662D672D8E2D00306F
:100AD000A3000030A2000030A1000030A0000C2EC6
:100AE0000130A8000310A00DA10DA20DA30DA80BAD
:100AF000722DB31F7C2D7D2D7E2D2014331C812D56
:100B0000822D852D0314B30D872D0310B30D3208EC
:100B100003198B2D8C2D8E2D0130B202A21F912D29
:100B2000922D702DB101B31F962D972DA52D330851
:100B30007F3903199C2D9D2DA02DB101B10AA52D42
:100B4000201CA32DA42DA52D9D2D31080319A92D01
:100B5000AA2DDE2D0130A007003003180130A107B7
:100B6000003003180130A207003003180130A3073A
:100B7000231CBB2DBC2DDE2D2008A8002108A900B8
:100B80002208AA002308AB000130AC002B0DAB0CEF
:100B9000AA0CA90CA80CAC0BC62D2B08A3002A0884
:100BA000A2002908A1002808A000320A0319D92DA3
:100BB000DA2DDE2D0130FF007F08B207320A03195B
:100BC000E22DE32DE82D3208031DE72DE82DF62D4B
:100BD0000030A3000030A2000030A1000030A000CF
:100BE0003208031DF42DF52DF62DB001321CF92D20
:100BF000FA2DFC2DA217002E7F30FF007F08A205E2
:100C00003208A8000310280CFF007F08A300B01FC3
:100C10000A2E0B2E0C2EA317080083120313B90003
:100C20002D30FF007F08B200BA2F25303A06031995
:100C30001A2E1B2E272E3A08FF00390884007F0841
:100C4000831380000130FF007F08B907BA2FB70176
:100C5000B801B601302E36150130FF007F08AC0711
:100C60002C0884000A128A11DB270A128A11303AF2
:100C700003192B2E3B2E2C0884000A128A11DB2725
:100C80000A128A110A128A15CF220A128A11031C2B
:100C90004A2E4B2E8B2E83120313B701B8010A3054
:100CA00083120313A0000030A1003808A300370806
:100CB000A2000A128A15B9230A128A118312031399
:100CC0002108B8002008B7002C0884000A128A11F5
:100CD000DB270A128A11D03EAF00FF300318003024
:100CE000B0002F08B7070318B80A3008B80701305A
:100CF000FF007F08AC072C0884000A128A11DB274A
:100D00000A128A110A128A15CF220A128A110318AE
:100D10008A2E8B2E4F2E013083120313AC07FF3027
:100D20002C0784000A128A11DB270A128A11BA00E2
:100D3000003A0319CC2F643A0319A22E0D3A031975
:100D4000A22EBA2F3208840083130008B400840A4C
:100D50000008B5000230FF007F08B207B51FB12EB2
:100D6000B22EBB2E0330FF007F08B604B409B509CC
:100D7000B40A0319B50ABA01BA0A3A08AF002F0734
:100D8000013E84000A128A11DB270A128A11B00080
:100D90000A128A11DB270A128A11B10031083502C2
:100DA000031DD42E300834020318D72ED82ED92E86
:100DB000E32E0130FF007F08BA0705303A06031D15
:100DC000E22EE32EBD2E370838040319E82EE92E53
:100DD000F52E360803390319EE2EEF2EF52EFF30CF
:100DE000B7070318B80AFF30B8073808803A803CC4
:100DF000031DFC2E37083A020318FF2E002F0C2F7C
:100E0000831203133A08AF00B0012F08B70230086D
:100E1000031CB803B802102F83120313B701B801E3
:100E2000361D132F142F432F360803390319192F9A
:100E30001A2F252F2D30FF00390884007F088313D7
:100E400080000130FF007F08B90737083804031914
:100E50002A2F2B2F712F3030FF00390884007F0894
:100E6000831380000130FF007F08B907FF30B70708
:100E70000318B80AFF30B80737083804031D412F9C
:100E8000422F2B2F712F370838040319482F492F71
:100E9000602F2030FF00390884007F088313800012
:100EA0000130FF007F08B907FF30B7070318B80A01
:100EB000FF30B80737083804031D5F2F602F492F14
:100EC000360803390319652F662F712F2D30FF0067
:100ED000390884007F08831380000130FF007F08F9
:100EE000B9073A08FF007F08B300B12F0A30A70006
:100EF0000030A8003308AF002F07013E84000A121B
:100F00008A11DB270A128A11A0000A128A11DB2734
:100F10000A128A11A1003508A3003408A2000A129F
:100F20008A15DD240A128A11831203132108AA00EC
:100F30002008A9000A128A15A1240A128A11831214
:100F400003132708303EFF007F08BA003A08FF006D
:100F5000390884007F08831380000130FF007F0878
:100F6000B907FF30FF007F08B307330A031DB92F0D
:100F7000BA2F762F0130AC07FF302C0784000A12FD
:100F80008A11DB270A128A11FF007F08BA003A088B
:100F9000031DCB2FCC2F152E39088400831380011D
:100FA0000800FF1BDB2F83137F1883170008840AB8
:100FB0000319FF0A080007308A000408840A820720
:100FC0000034013400340A34003464340034E8342A
:100FD00003341034273454343634473431342D3408
:100FE00044344734003425343034343464342034C9
:100FF0006D346D340034253430343434643400348A
:1014EC0083120313051108008312031385110800DE
:1014FC00831203130515080020308312031386068C
:10150C0008008316031305120611861083160317A1
:10151C000910091208008316031381128111073078
:10152C0081049D308312031381008B1608008316EF
:10153C00031386128316031789128316031386135B
:10154C0006178113151716178B150800781CAF2A70
:10155C00B02AB82A7810013083120313A00000308F
:10156C00A100BC2A83120313A001A101080083125D
:10157C000313A4000A128A1576220A128A15831202
:10158C0003132408803E0A128A1574230A128A1542
:10159C00080083120313A100A0013A3021020318A2
:1015AC00D82AD92AE12A30302102031CDE2ADF2A6C
:1015BC00E12AA001A00A200C0800831203139F1437
:1015CC000C1FE92AEA2AE62A1E08A3008316031335
:1015DC001E0883120313A2009E01831603139E019F
:1015EC00831203130C132308A1002208A000080087
:1015FC000A128A1576220A128A15831203132408FA
:10160C00250403190A2B0B2B122B0F300A128A15E7
:10161C0074230A128A15182B0C300A128A1574239B
:10162C000A128A150800F0002A2B103083120313BB
:10163C008506352B0430831203138606352B0230B6
:10164C00831203138606352B7008013A03191B2BE2
:10165C00033A0319202B013A0319252B352B0800CB
:10166C00F1007108F00006300310F00CFF3E031D72
:10167C003A2B70080139FF007F08F2007208031D35
:10168C00482B492B4F2B7903031D4D2B4E2B4F2BE6
:10169C0078147208FF007F08F90008008316031302
:1016AC000514831603170814831203139F171F13B3
:1016BC00831603139F121F12C330831203139F054B
:1016CC00831603139F17831203131F1407308312FF
:1016DC000313A000A00B702B00000800831203134F
:1016EC00A3002308A20004300310A20CFF3E031D2C
:1016FC007A2B22080A128A1523250A128A158312BC
:10170C00031323080A128A1523250A128A1541305D
:10171C0083120313A200A20B912B942B0800803090
:10172C0083120313CB064F08A3004E08A2004D08EA
:10173C00A1004C08A0004B08A7004A08A6004908C5
:10174C00A5004808A4000A128A1185230A128A15DA
:10175C00831203132308CB002208CA002108C900F6
:10176C002008C800080083120313A401A501201C43
:10177C00C02BC12BC72B2208A4070318A50A2308CA
:10178C00A50701300310A20DA30DFF3E031DC82BAE
:10179C0001300310A10CA00CFF3E031DCF2B200821
:1017AC002104031DDA2BDB2BBD2B2508A1002408FB
:1017BC00A000080083120313A800A401A5012008AF
:1017CC00A200A3012208A6002308A700281CEF2BC7
:1017DC00F02BF62B2608A4070318A50A2708A50743
:1017EC0001300310A60DA70DFF3E031DF72B0310B0
:1017FC00A80C2808031D032C042CEC2B2508A10095
:10180C002408A00008000A128A157E220A128A15E2
:10181C00252C2508FF00240884000A128A11D127E0
:10182C000A128A150A128A1574230A128A150130B3
:10183C0083120313A4070318A50A0030A50783120B
:10184C0003132508FF00240884000A128A11D127EB
:10185C000A128A15003A031D342C352C0F2C080063
:10186C00532C8312031386171A3083120313A3000D
:10187C00F730A200A20B402CA30B402C452C83125A
:10188C00031386131A3083120313A300F730A2003C
:10189C00A20B4E2CA30B4E2C532C8312031321089A
:1018AC00A300A003200AA2000319A1032308803A75
:1018BC00FF0080307F02031D652C013022020318CB
:1018CC00682C692C372C08008B1E6D2C6E2C7B2CF5
:1018DC000B1D712C722C7B2C0130E7070318E80AC6
:1018EC000030E8079D3081000B118B1D7E2C7F2C66
:1018FC00942C0B1C822C832C942C0608FF007F0844
:10190C00F70077080A128A1536230A128A15013055
:10191C000A128A1519230A128A150B1076088312DB
:10192C000313FF0075088A0074088400730E83008B
:10193C00FE0E7E0E090083120313270828040319D8
:10194C00A82CA92CD82CAB01AB0AB72C0130031056
:10195C00A70DA80DFF3E031DAD2C0130FF007F0825
:10196C00AB07A81FBA2CBB2CAC2C28082A02031DD1
:10197C00C12C27082902031CC42CC52CCB2C2708EE
:10198C00A9022808031CAA03AA0201300310A80C00
:10199C00A70CFF3E031DCC2C0130AB02031DD72C32
:1019AC00D82CBB2C2A08A8002908A70008008312F1
:1019BC000313A401A501200821040319E62CE72C2C
:1019CC001E2DA601A60AF52C01300310A00DA10DA9
:1019DC00FF3E031DEB2C0130FF007F08A607A11F63
:1019EC00F82CF92CEA2C01300310A40DA50DFF3EA8
:1019FC00031DFA2C21082302031D062D20082202A8
:101A0C00031C092D0A2D112D2008A2022108031CEC
:101A1C00A303A302241401300310A10CA00CFF3E5D
:101A2C00031D122D0130A602031D1D2D1E2DF92C98
:101A3C002508A1002408A000080083120313A100AC
:101A4C002118292D2D2D831203130714302D8312E9
:101A5C00031307102108A00001300310A00CFF3E57
:101A6C00031D332D20183B2D3F2D83120313871597
:101A7C00422D8312031387112108A000023003109A
:101A8C00A00CFF3E031D452D20184D2D512D83120A
:101A9C0003130716542D8312031307122108A000F9
:101AAC0003300310A00CFF3E031D572D20185F2D93
:101ABC00632D831203138716662D8312031387126B
:101ACC0006140614061406100800831603130610D9
:101ADC008316031709128316031385118316031734
:101AEC008811831603130511831603170811C630CA
:101AFC00FF007F0883160313870583120313061058
:101B0C000A128A157A220A128A150A128A15762264
:101B1C000A128A15623083120313A5006530A400E3
:101B2C00A40B962DA50B962D02300A128A15742340
:101B3C000A128A150D3083120313A500FB30A40082
:101B4C00A40BA62DA50BA62D28300A128A157423DA
:101B5C000A128A1508300A128A1574230A128A1579
:101B6C000F300A128A1574230A128A1506300A12CB
:101B7C008A1574230A128A150800031083120313A2
:101B8C00520D530DFF007F08D9005908031DCF2DAE
:101B9C00D02DD92D0030D3000030D2000030D10030
:101BAC000030D0003E2E5008D4005108D500520809
:101BBC00D6005308D7001F300310D70CD60CD50C09
:101BCC00D40CFF3E031DE22D5408FF007F08D80003
:101BDC00D217FF30D005FF30D105FF30D2050030D1
:101BEC00D3059630D902D91FFC2DFD2D172E59087F
:101BFC00803A973E0318032E042E052ED02D01306B
:101C0C000310D30CD20CD10CD00CFF3E031D062EAE
:101C1C000130FF007F08D907031D152E162E052E47
:101C2C002E2E20305902031C1C2E1D2E292ED02D99
:101C3C000130D4000310D00DD10DD20DD30DD40B27
:101C4C00202E0130D9025908031D2D2E2E2E1E2EAA
:101C5C0058080319322E332E3E2ED009D109D20941
:101C6C00D309D00A0319D10A0319D20A0319D30ACA
:101C7C00080083120313A80028080319462E472EC8
:101C8C005B2EA31F4A2E4B2E5B2E2009AA00210986
:101C9C00AB002209AC002309AD00AA0A0319AB0A58
:101CAC000319AC0A0319AD0A632E2308AD002208F0
:101CBC00AC002108AB002008AA0023082204210450
:101CCC002004031D6A2E6B2E742E0030A3000030EE
:101CDC00A2000030A1000030A000FA2E9630FF00C8
:101CEC007F08A900862E0130FF007F08A90701306C
:101CFC000310AD0CAC0CAB0CAA0CFF3E031D7E2EDE
:101D0C00FE302D05031D8B2E8C2E792EA82E013026
:101D1C00FF007F08A9070130AA0700300318013023
:101D2C00AB07003003180130AC070030031801304A
:101D3C00AD0701300310AD0CAC0CAB0CAA0CFF3E84
:101D4C00031DA02EFF302D05031DAD2EAE2E8D2EA6
:101D5C00BA2E0130A9020130A4000310AA0DAB0D5C
:101D6C00AC0DAD0DA40BB32EAC1BBD2EBE2EC42ED4
:101D7C00023029020318C32EC42EAF2E2918C72EE9
:101D8C00C82ED02EFF30AA05FF30AB057F30AC0536
:101D9C00FF30AD050310A90C2908A400A501A6016C
:101DAC00A70118300310A40DA50DA60DA70DFF3E1D
:101DBC00031DD82E2408AA042508AB042608AC045D
:101DCC002708AD0428080319EC2EED2EF22EA31FC4
:101DDC00F02EF12EF22EAD172D08A3002C08A20028
:101DEC002B08A1002A08A00008000A128A15542307
:101DFC000A128A150A128A1591220A128A150A12D7
:101E0C008A159D220A128A150A128A156B250A1246
:101E1C008A150A128A1587220A128A158B176430C2
:101E2C0083120313A0000030A1000A128A15362475
:101E3C000A128A15003083120313A400A5000A129B
:101E4C008A15FE220A128A150B3083120313A40082
:101E5C008030A5000A128A1509240A128A150A1262
:101E6C008A15AC220A128A15831203132008210446
:101E7C000319412F422F472F0A128A1582220A1268
:101E8C008A15831203136808803AFF0080307F02A2
:101E9C00031D522F28306702031C552F562FF12F8C
:101EAC000A128A15E3220A128A15831203132108D7
:101EBC00E6002008E500E701E80103306602533034
:101ECC0003196502031C6B2F6C2F8D2FE501E601A6
:101EDC001B30FF007F08AC000030AD00AE005C3062
:101EEC000A128A110D260A128A1540300A128A1516
:101EFC00BD220A128A155C3083120313A400003031
:101F0C00A5000A128A1509240A128A15F12F4330EA
:101F1C00CF009630CE000030CD000030CC006508EC
:101F2C00A0006608A100A201A30100300A128A15C4
:101F3C003F260A128A15831203132308B5002208C0
:101F4C00B4002108B3002008B2003E30B100B43018
:101F5C00B000AF30AF004F30AE000A128A1124200F
:101F6C000A128A15831203133108CB003008CA00F9
:101F7C002F08C9002E08C8000A128A1595230A12C8
:101F8C008A15831203134B08D3004A08D200490860
:101F9C00D1004808D0000A128A15C3250A128A15E6
:101FAC00831203135108E6005008E5001330FF00BC
:101FBC007F08AC006608AE006508AD005C300A1204
:101FCC008A110D260A128A1540300A128A15BD2272
:101FDC000A128A15812F073083120313DB007C3021
:101FEC00DA00DA0BF72FDB0BF72F0000352F0A1274
:041FFC008A1112280C
:04400E00F32FFF3F4E
:00000001FF
