:020000040000FA
:100000000A128A1116280134FE00030E8316031308
:10001000C1000408C2000A08C300831203137F084A
:1000200083160313C4000A128A151B280A128A11A8
:100030001928831603130A128A1103200A128A113F
:10004000EF008313D3308400ED300A168A15E920BF
:100050000A128A11EE0183010A168A15692E831687
:100060000313B8006B30FF007F08A900182F25305C
:100070003D0603193C283D2849283D08FF00380863
:1000800084007F08831380000130FF007F08B807D9
:10009000182FAA01AB014E282B156A2801308312B4
:1000A0000313EA07FF306A0784000A168A150A203C
:1000B0000A128A1183160313BD00003A03192E2F6A
:1000C000643A03196A28023A03194C280F3A0319B3
:1000D0006A28182F00302A05A00007302B05A10040
:1000E00020082104031975287628202E0630AC003C
:1000F0000030AD002908840083130008B900840A89
:100100000008BA00840A0008BB00840A0008BC008A
:100110000430FF007F08A9073C08F3003B08F20009
:100120003A08F1003908F0000030F7000030F6001E
:100130000030F5000030F4000A168A155E270A1216
:100140008A110318A428A528C228831603133C0883
:10015000F3003B08F2003A08F1003908F0000A16F3
:100160008A15FB200A128A11730883160313BC0038
:100170007208BB007108BA007008B9000330AA0405
:100180000030AB0483160313B201B3013C08F30043
:100190003B08F2003A08F1003908F0000030F7009F
:1001A0000030F6000030F5000030F4000A168A1521
:1001B0009D230A128A110318DE28DF28CF29031095
:1001C000831603133B0D3C0D823EB200FF30031833
:1001D0000030B300FF30B2070318B30AFF30B30793
:1001E0000330F0000030F1003308F3003208F20071
:1001F0000A168A15F3210A128A117108831603134D
:10020000B3007008B2000A30F6000030F70033087F
:10021000F9003208F8000A168A1502260A128A1115
:10022000770883160313B3007608B200B31F1929A9
:100230001A292029FF30B2070318B30AFF30B30789
:100240003203FF3A0A128A1540210A128A118312D8
:1002500003133D0883160313B700831203133C08EE
:1002600083160313B600831203133B08831603138C
:10027000B500831203133A0883160313B4003C0835
:1002800083120313A300831603133B088312031383
:10029000A200831603133A0883120313A1008316E6
:1002A0000313390883120313A000831603133708BE
:1002B00083120313A7008316031336088312031354
:1002C000A60083160313350883120313A5008316B3
:1002D0000313340883120313A4000A128A159F24FF
:1002E0000A128A1183120313230883160313B7001B
:1002F00083120313220883160313B6008312031319
:10030000210883160313B5008312031320088316F4
:100310000313B4003708F3003608F2003508F10083
:100320003408F0003F30F7008030F6000030F50070
:100330000030F4000A168A155E270A128A11031883
:10034000A229A329AC29FF3083160313B20703188F
:10035000B30AFF30B307CF29831603133708F3001E
:100360003608F2003508F1003408F0004130F7009B
:100370002030F6000030F5000030F4000A168A152F
:100380005E270A128A11031CC629C729CF2901300A
:1003900083160313B2070318B30A0030B3070630FD
:1003A0000A168A116D230A128A11831203133D085B
:1003B000D1003C08D0003B08CF003A08CE0083169D
:1003C00003133C0883120313D500831603133B0861
:1003D00083120313D400831603133A088312031302
:1003E000D30083160313390883120313D2000A16AD
:1003F0008A1178250A128A11831203135108831671
:100400000313BC0083120313500883160313BB00AD
:10041000831203134F0883160313BA0083120313C6
:100420004E0883160313B9003308803AFF0080306A
:100430007F02031D1D2A0A3032020318202A212AB6
:10044000722A831603133C08F3003B08F2003A08B3
:10045000F1003908F0000030F7000030F6000030FD
:10046000F5000030F4000A168A159D230A128A113D
:1004700003183B2A3C2AE42A831603133C08831200
:100480000313BD00831603133B0883120313BC0040
:10049000831603133A0883120313BB008316031356
:1004A000390883120313BA000A168A15E2260A12C3
:1004B0008A11831203133D083C043B043A04031DD4
:1004C000622A632AE42A831603133308803AFF0062
:1004D00080307F02031D6E2A02303202031C712A13
:1004E000722AE42A831603133708F3003608F20051
:1004F0003508F1003408F0004030F7008930F6008C
:100500007030F5005F30F4000A168A155E270A1273
:100510008A1103188C2A8D2A962AF7308316031322
:10052000B2070318B30AFF30B3079E2AF8308316C8
:100530000313B2070318B30AFF30B30732080A12D5
:100540008A1540210A128A11831203133D0883166B
:100550000313B700831203133C0883160313B6007A
:10056000831203133B0883160313B500831203138E
:100570003A0883160313B4003C08F3003B08F2006A
:100580003A08F1003908F0003708F7003608F6009D
:100590003508F5003408F4000A128A1133270A12CC
:1005A0008A11730883160313B1007208B000710832
:1005B000AF007008AE000030BC000030BB0000305F
:1005C000BA000030B900682B831603133C0883126D
:1005D0000313BD00831603133B0883120313BC00EF
:1005E000831603133A0883120313BB008316031305
:1005F000390883120313BA000A168A15E2260A1272
:100600008A11831203133D0883160313B10083126A
:1006100003133C0883160313B000831203133B0833
:1006200083160313AF00831203133A0883160313D0
:10063000AE003108F3003008F2002F08F1002E0858
:10064000F00000300A168A1119200A128A11730864
:1006500083120313E5007208E4007108E3007008D8
:10066000E200831603133C0883120313E900831688
:1006700003133B0883120313E800831603133A089D
:1006800083120313E700831603133908831203133D
:10069000E6000A168A15CF210A128A118312031363
:1006A000650883160313BC008312031364088316C2
:1006B0000313BB0083120313630883160313BA00EA
:1006C00083120313620883160313B900B201B30146
:1006D000BD01BD0A3D08A00001300310A00DFF3E82
:1006E000031D6D2B0310200D693E84000A168A1528
:1006F0000A200A128A11A1000A168A150A200A1273
:100700008A11A2000A168A150A200A128A11A30069
:100710000A168A150A200A128A11A4002408310236
:10072000031D9C2B23083002031D9C2B22082F0243
:10073000031D9C2B21082E0203189F2BA02BA12BFD
:10074000AB2B0130FF007F08BD070A303D06031DBB
:10075000AA2BAB2B6A2B03302A05A00000302B05F7
:10076000A100200821040319B62BB72B492C2D30EA
:10077000FF00380884007F08831380000130FF00E9
:100780007F08B807492C3D08A00001300310A00DD8
:10079000FF3E031DC62B0310200D693E84000A1680
:1007A0008A150A200A128A11F0000A168A150A20F0
:1007B0000A128A11F1000A168A150A200A128A11F1
:1007C000F2000A168A150A200A128A11F30031086B
:1007D000F7003008F6002F08F5002E08F4000A167E
:1007E0008A159C250A128A11730883160313B70011
:1007F0007208B6007108B5007008B40000308312AA
:100800000313A3000030A2000030A1000A30A000B2
:1008100083160313370883120313A70083160313E9
:10082000360883120313A6008316031335088312B8
:100830000313A50083160313340883120313A400C3
:100840000A168A1539240A128A11831203132308FF
:1008500083160313B70083120313220883160313AE
:10086000B60083120313210883160313B500831205
:100870000313200883160313B4003408303EFF002E
:10088000380884007F08831380000130FF007F0850
:10089000B8070130BD023D0A031D4F2C502CC32B5D
:1008A000642C3030FF0083160313380884007F085F
:1008B000831380000130FF007F08B807FF30B207C4
:1008C0000318B30AFF30B3073308803AFF008030C3
:1008D0007F02031D6D2C013032020318702C712C25
:1008E000512C831603132D08803AFF0080307F02BD
:1008F000031D7C2C09302C02031C7F2C802C872CA0
:100900000830FF007F0883160313BD008D2C83166B
:1009100003132C08FF007F08BD003D08A000A101C3
:100920002008AC022108031CAD03AD023D080319E9
:100930009A2C9B2CA62C2E30FF00380884007F08B0
:10094000831380000130FF007F08B8073D080A12BA
:100950008A1540210A128A11831203133D08831657
:100960000313A800831203133C0883160313A70084
:10097000831203133B0883160313A6008312031389
:100980003A0883160313A500280883120313A7004F
:1009900083160313270883120313A6008316031379
:1009A000260883120313A500831603132508831258
:1009B0000313A400831603133C0883120313A3003C
:1009C000831603133B0883120313A2008316031339
:1009D0003A0883120313A100831603133908831204
:1009E0000313A0000A128A159F240A128A11831287
:1009F00003132308BD002208BC002108BB00200807
:100A0000BA000A168A15E2260A128A118312031303
:100A10003D0883160313B100831203133C088316A9
:100A20000313B000831203133B0883160313AF00B4
:100A3000831203133A0883160313AE00002E3D08F9
:100A4000A00001300310A00DFF3E031D222D031056
:100A5000200D693E84000A168A150A200A128A119E
:100A6000F0000A168A150A200A128A11F1000A16E5
:100A70008A150A200A128A11F2000A168A150A201B
:100A80000A128A11F3003108F7003008F6002F0827
:100A9000F5002E08F4000A168A159C250A128A1100
:100AA000730883160313B7007208B6007108B50007
:100AB0007008B400003083120313A3000030A200BA
:100AC0000030A1000A30A0008316031337088312F8
:100AD0000313A70083160313360883120313A6001B
:100AE00083160313350883120313A500831603131B
:100AF000340883120313A4000A168A1539240A1233
:100B00008A1183120313230883160313B700831279
:100B10000313220883160313B6008312031321085C
:100B200083160313B50083120313200883160313DF
:100B3000B4003408303EFF00380884007F08831377
:100B400080000130FF007F08B8073D08A000013099
:100B50000310A00DFF3E031DA82D0310200D693EBC
:100B600084000A168A150A200A128A1183120313B6
:100B7000A0000A168A150A200A128A11A1000A1674
:100B80008A150A200A128A11A2000A168A150A205A
:100B90000A128A11A3008316031331088312031368
:100BA000A70083160313300883120313A6008316CD
:100BB00003132F0883120313A500831603132E08B3
:100BC00083120313A4000A168A1539240A128A1103
:100BD00083120313230883160313B1008312031334
:100BE000220883160313B00083120313210883160F
:100BF0000313AF0083120313200883160313AE0000
:100C00000130BD023D0A031D062E072E1F2D192E91
:100C10003030FF00380884007F08831380000130E3
:100C2000FF007F08B807FF30AC070318AD0AFF309C
:100C3000AD072C082D04031D1E2E1F2E082E182F65
:100C40002908840083130008A000840A0008A1007A
:100C50002008AE002108AF000030AF1BFF30B0000D
:100C6000B1000230FF007F08A907B11F382E392ECE
:100C7000482E0330AA040030AB04AE09AF09B00916
:100C8000B109AE0A0319AF0A0319B00A0319B10A70
:100C9000BD01BD0A3D08A00001300310A00DFF3EBC
:100CA000031D4D2E0310200D693E84000A168A157F
:100CB0000A200A128A11A1000A168A150A200A12AD
:100CC0008A11A2000A168A150A200A128A11A300A4
:100CD0000A168A150A200A128A11A4002408310271
:100CE000031D7C2E23083002031D7C2E22082F02B8
:100CF000031D7C2E21082E0203187F2E802E812EAC
:100D00008B2E0130FF007F08BD070A303D06031D12
:100D10008A2E8B2E4A2E03302A05A00000302B0588
:100D2000A100200821040319962E972EA22E2D3003
:100D3000FF00380884007F08831380000130FF0023
:100D40007F08B8073D08A000A1012008AC002108D9
:100D5000AD000A2F003083120313A3000030A2005D
:100D60000030A1000A30A000831603132C08A00055
:100D700001300310A00DFF3E031DB92E0310200DFE
:100D8000693E84000A168A150A200A128A11F000A8
:100D90000A168A150A200A128A11F1000A168A1503
:100DA0000A200A128A11F2000A168A150A200A126B
:100DB0008A11F3003108F7003008F6002F08F5001B
:100DC0002E08F4000A168A159C250A128A11730847
:100DD00083120313A7007208A6007108A50070080B
:100DE000A4000A168A1539240A128A1183120313E1
:100DF0002008303EFF007F0883160313BD003D0826
:100E0000FF00380884007F08831380000130FF0052
:100E10007F08B807FF30AC070318AD0AFF30AD07F5
:100E20002C0A031D172F2D0A031D172F182FAA2E6A
:100E3000013083120313EA07FF306A0784000A16A1
:100E40008A150A200A128A11FF007F0883160313ED
:100E5000BD003D08031D2D2F2E2F37283808840094
:100E60008313800108000310720D730DFF007F08CB
:100E700083120313A5002508031D3F2F402F492F80
:100E80000030F3000030F2000030F1000030F000DC
:100E9000F02F0310760D770DFF007F08A4002408C3
:100EA000031D532F542F552F402FF217FF30F005FD
:100EB000FF30F105FF30F2050030F305F617FF3083
:100EC000F405FF30F505FF30F6050030F70500307A
:100ED000A3000030A2000030A1000030A0007F304D
:100EE000A502A0302407F8007808A5022030FF00F2
:100EF0007F08A4000130F8000310A00DA10DA20D81
:100F0000A30DF80B7C2F77087302031D912F760831
:100F10007202031D912F75087102031D912F740831
:100F20007002031C942F952FA42F7408F0027508EB
:100F3000031C750FF1027608031C760FF202770886
:100F4000031C770FF30220140130F8000310F00D9A
:100F5000F10DF20DF30DF80BA62F0130A402031DC5
:100F6000B22FB32F7A2FA51FB62FB72FD12F250859
:100F7000803A9F3E0318BD2FBE2FBF2F402F013058
:100F80000310A30CA20CA10CA00CFF3E031DC02F4C
:100F90000130FF007F08A507031DCF2FD02FBF2FE3
:100FA000E82F20302502031CD62FD72FE32F402F08
:100FB0000130F8000310A00DA10DA20DA30DF80B38
:100FC000DA2F0130A5022508031DE72FE82FD82FBF
:100FD0002308F3002208F2002108F1002008F000A5
:100FE0000800831603138615061683160317891146
:100FF0008910831603139615161681178B15080092
:101000000A168A15D8200A128A158316031714089F
:10101000150403190C280D2814280F300A168A15F8
:101020008C210A128A151A280C300A168A158C216E
:101030000A128A1508008B1E1E281F28B6280B1DB1
:1010400022282328B6280130E7070318E80A0030D1
:10105000E807333067066804031D2F283028B128BD
:101060003F3083120313A3000030A2000030A10020
:101070000030A0008316031369086B02F0006A08B1
:10108000031C6A0A6C02F100F201F11BF203720800
:10109000F30001300A168A1119200A128A15730802
:1010A00083120313A7007208A6007108A500700838
:1010B000A4000A168A1190210A128A1583120313BA
:1010C000230883160313D100831203132208831607
:1010D0000313D00083120313210883160313CF00D8
:1010E00083120313200883160313CE009E30FF00E3
:1010F0007F0883120313EA00831603135108831237
:101100000313EE0083160313500883120313ED003C
:10111000831603134F0883120313EC008316031383
:101120004E0883120313EB00C5300A128A112F20D8
:101130000A128A1540300A168A1512210A128A15D7
:10114000C530F4000030F5000A168A153F220A1255
:101150008A15831603136C08EA006B08E900E7019F
:10116000E8013C308312031381000B118B1DB92859
:10117000BA282F290B1CBD28BE282F298312060848
:10118000FF007F0883160313D20052080A168A153F
:10119000AD210A128A1501300A168A156F210A122A
:1011A0008A15831603135208BE0003300310BE0CC9
:1011B000FF3E031DD6283E080339BF00C0013F088B
:1011C000E5004008E6006308BE0002300310BE0DD3
:1011D000FF3E031DE628D3303E07BF0065083F07EA
:1011E000C0004008840083130008FF007F08ED0062
:1011F0006608E4006508E3006D08BE00BF01BE1B81
:10120000BF033E08EB070318EC0A3F08EC079B30CE
:10121000FF007F0883120313EA00831603136C0890
:1012200083120313EC00831603136B08831203135A
:10123000EB00C5300A128A112F200A128A150030DD
:101240000A168A1512210A128A15C530F4000030D8
:10125000F5000A168A153F220A128A150B1083160A
:101260000313440883120313FF0083160313430878
:101270008A0042088400410E8300FE0E7E0E0900A3
:1012800083120313CC00CC1F46294729F42ACC092A
:10129000CC0A4C08803A123E031C4F295029382AA8
:1012A0000A30F6000030F7004C08F200F301F21BA0
:1012B000F3036430F0000030F1000A168A15E724C9
:1012C0000A128A157108F9007008F8000A168A15C2
:1012D00002260A128A15760883120313BE00013013
:1012E0000310BE0DFF3E031D702903103E0D593E35
:1012F00084000A168A150A200A128A15BF000A16E7
:101300008A150A200A128A15C0000A168A150A20B0
:101310000A128A15C1000A168A150A200A128A15AD
:10132000C2004208A3004108A2004008A1003F08F3
:10133000A0006430F6000030F7004C08F800F90116
:10134000F81BF9030A168A1502260A128A1576086E
:1013500083120313C30001300310C30DFF3E031DAE
:10136000AC290310430D7D3E84000A168A150A201D
:101370000A128A15C4000A168A150A200A128A154A
:10138000C5000A168A150A200A128A15C6000A160E
:101390008A150A200A128A15C7004708A7004608BE
:1013A000A6004508A5004408A4000A128A159F2437
:1013B0000A128A15831203132308CB002208CA00DD
:1013C0002108C9002008C8000A30F0000030F100F0
:1013D0004C08F200F301F21BF3030A168A15E72406
:1013E0000A128A15700883120313BE00013003101D
:1013F000BE0DFF3E031DF72903103E0D353E840050
:101400000A168A150A200A128A15BF000A168A15BA
:101410000A200A128A15C0000A168A150A200A1222
:101420008A15C1000A168A150A200A128A15C200F6
:101430004208A3004108A2004008A1003F08A00004
:101440004B08A7004A08A6004908A5004808A400C0
:101450000A128A159F240A128A158312031323087D
:10146000BD002208BC002108BB002008BA009E2C49
:101470004C08803A753E031C3E2A3F2AC72A0A3090
:10148000F0000030F1004C08F200F301F21BF3030E
:101490000A168A15E7240A128A15700883120313A4
:1014A000BE0001300310BE0DFF3E031D522A031083
:1014B0003E0D353E84000A168A150A200A128A1546
:1014C000BF000A168A150A200A128A15C0000A16D9
:1014D0008A150A200A128A15C1000A168A150A20DE
:1014E0000A128A15C2004208A3004108A20040085F
:1014F000A1003F08A0000A30F6000030F7004C08B9
:10150000F800F901F81BF9030A168A1502260A12D7
:101510008A15760883120313C30001300310C30D2C
:10152000FF3E031D8E2A0310430D593E84000A1608
:101530008A150A200A128A15C4000A168A150A207A
:101540000A128A15C5000A168A150A200A128A1577
:10155000C6000A168A150A200A128A15C70047080B
:10156000A7004608A6004508A5004408A4000A12E2
:101570008A159F240A128A15831203132308BD00BB
:101580002208BC002108BB002008BA009E2C4C0891
:10159000BE0001300310BE0DFF3E031DCA2A03101A
:1015A0003E0D353E84000A168A150A200A128A1555
:1015B000BF000A168A150A200A128A15C0000A16E8
:1015C0008A150A200A128A15C1000A168A150A20ED
:1015D0000A128A15C2004208BD004108BC0040083A
:1015E000BB003F08BA009E2C4C08803A123E031CF8
:1015F000FA2AFB2AE32B0A30F6000030F7004C08E9
:10160000F200F301F21BF3036430F0000030F1004C
:101610000A168A15E7240A128A157108F90070085B
:10162000F8000A168A1502260A128A15760883120D
:101630000313BE0001300310BE0DFF3E031D1B2B24
:1016400003103E0D253E84000A168A150A200A1250
:101650008A15BF000A168A150A200A128A15C000C8
:101660000A168A150A200A128A15C1000A168A1556
:101670000A200A128A15C2004208A3004108A200EB
:101680004008A1003F08A0006430F6000030F700D9
:101690004C08F800F901F81BF9030A168A1502260E
:1016A0000A128A15760883120313C300013003104F
:1016B000C30DFF3E031D572B0310430D493E84000D
:1016C0000A168A150A200A128A15C4000A168A15F3
:1016D0000A200A128A15C5000A168A150A200A125B
:1016E0008A15C6000A168A150A200A128A15C7002A
:1016F0004708A7004608A6004508A5004408A4001E
:101700000A128A159F240A128A15831203132308CA
:10171000CB002208CA002108C9002008C8000A30EE
:10172000F0000030F1004C08F200F301F21BF3036B
:101730000A168A15E7240A128A1570088312031301
:10174000BE0001300310BE0DFF3E031DA22B03108F
:101750003E0D013E84000A168A150A200A128A15D7
:10176000BF000A168A150A200A128A15C0000A1636
:101770008A150A200A128A15C1000A168A150A203B
:101780000A128A15C2004208A3004108A2004008BC
:10179000A1003F08A0004B08A7004A08A60049087E
:1017A000A5004808A4000A128A159F240A128A1567
:1017B000831203132308BD002208BC002108BB00CC
:1017C0002008BA009E2C4C08803A753E031CE92B79
:1017D000EA2B722C0A30F0000030F1004C08F200C5
:1017E000F301F21BF3030A168A15E7240A128A157D
:1017F000700883120313BE0001300310BE0DFF3EBC
:10180000031DFD2B03103E0D013E84000A168A15B0
:101810000A200A128A15BF000A168A150A200A121F
:101820008A15C0000A168A150A200A128A15C100F4
:101830000A168A150A200A128A15C2004208A30055
:101840004108A2004008A1003F08A0000A30F600AD
:101850000030F7004C08F800F901F81BF9030A16EC
:101860008A1502260A128A15760883120313C3000A
:1018700001300310C30DFF3E031D392C0310430D2F
:10188000253E84000A168A150A200A128A15C40009
:101890000A168A150A200A128A15C5000A168A1520
:1018A0000A200A128A15C6000A168A150A200A1288
:1018B0008A15C7004708A7004608A6004508A500E6
:1018C0004408A4000A128A159F240A128A1583125A
:1018D00003132308BD002208BC002108BB00200818
:1018E000BA009E2C4C08BE0001300310BE0DFF3E16
:1018F000031D752C03103E0D013E84000A168A1547
:101900000A200A128A15BF000A168A150A200A122E
:101910008A15C0000A168A150A200A128A15C10003
:101920000A168A150A200A128A15C2004208BD004A
:101930004108BC004008BB003F08BA000800831201
:10194000031323088039FF007F08AD002308A80097
:101950002807FF007F08B300A21FAF2CB02CB12CCA
:10196000331433080319B52CB62CC52C330A031DC8
:10197000BA2CBB2CC32C0030A3000030A2000030D6
:10198000A1000030A000A217CD2C0030A300003031
:10199000A2000030A1000030A00027088039FF001D
:1019A0007F08AD062708A8002807FF007F08B200BF
:1019B000A61FDB2CDC2CDD2C321432080319E12CA1
:1019C000E22CF12C320A031DE62CE72CEF2C003020
:1019D000A7000030A6000030A5000030A400A61724
:1019E000F92C0030A7000030A6000030A500003020
:1019F000A40032080319FD2CFE2C032D3308031D0F
:101A0000022D032D0C2D0030A3000030A200003069
:101A1000A1000030A000FF2F2008FF007F08F00089
:101A200026080A168A1518220A128A1571088312C6
:101A30000313B9007008B8003808A800A901AA016A
:101A4000AB012B08B1002A08B0002908AF00280814
:101A5000AE003908A800A901AA01AB012B08B70004
:101A60002A08B6002908B5002808B4002108FF009C
:101A70007F08F00025080A168A1518220A128A150E
:101A8000710883120313B9007008B8003808A80061
:101A9000A901AA01AB012808AE0729080311031800
:101AA000013E0319542DAF072A0803110318013E04
:101AB00003195B2DB0072B0803110318013E03190E
:101AC000622DB1073908A800A901AA01AB012808B5
:101AD000B407290803110318013E0319702DB50737
:101AE0002A0803110318013E0319772DB6072B08A6
:101AF00003110318013E03197E2DB7072208FF00CA
:101B00007F08F00024080A168A1518220A128A157E
:101B1000710883120313B9007008B8003808A800D0
:101B2000A901AA01AB012808AE072908031103186F
:101B3000013E03199C2DAF072A0803110318013E2B
:101B40000319A32DB0072B0803110318013E031935
:101B5000AA2DB1073908A800A901AA01AB012808DC
:101B6000B407290803110318013E0319B82DB5075E
:101B70002A0803110318013E0319BF2DB6072B08CD
:101B800003110318013E0319C62DB7070830A8003A
:101B90000310AE0DAF0DB00DB10DA80BC82D21086F
:101BA000FF007F08F00024080A168A1518220A127E
:101BB0008A15710883120313B9007008B800380839
:101BC000A8003908A900AA01AB012808AE07290816
:101BD00003110318013E0319EE2DAF072A08031164
:101BE0000318013E0319F52DB0072B080311031844
:101BF000013E0319FC2DB1072008FF007F08F0000B
:101C000025080A168A1518220A128A1571088312E5
:101C10000313B9007008B8003808A8003908A900F3
:101C2000AA01AB012808AE07290803110318013ED9
:101C300003191B2EAF072A0803110318013E0319CD
:101C4000222EB0072B0803110318013E0319292E79
:101C5000B1070830A8000310AE0DAF0DB00DB10DE7
:101C6000A80B2B2E2008FF007F08F00024080A167E
:101C70008A1518220A128A15710883120313B900F3
:101C80007008B8003808A8003908A900AA01AB01FB
:101C90002808AE07290803110318013E0319512E25
:101CA000AF072A0803110318013E0319582EB00785
:101CB0002B0803110318013E03195F2EB1072108F9
:101CC000FF007F08F00026080A168A1518220A125B
:101CD0008A15710883120313B9007008B800380818
:101CE000A8003908A900AA01AB012808B4072908EF
:101CF00003110318013E03197E2EB5072A080311AC
:101D00000318013E0319852EB6072B08031103188B
:101D1000013E03198C2EB7072208FF007F08F00050
:101D200025080A168A1518220A128A1571088312C4
:101D30000313B9007008B8003808A8003908A900D2
:101D4000AA01AB012808B407290803110318013EB2
:101D50000319AB2EB5072A0803110318013E031916
:101D6000B22EB6072B0803110318013E0319B92E32
:101D7000B7072208FF007F08F00026080A168A1518
:101D800018220A128A15710883120313B900700809
:101D9000B8003808A8003908A900AA01AB0108302A
:101DA0000310A80DA90DAA0DAB0DFF3E031DD02EEB
:101DB0002808B407290803110318013E0319E12E6E
:101DC000B5072A0803110318013E0319E82EB607C8
:101DD0002B0803110318013E0319EF2EB7072E0835
:101DE000A8002F08A9003008AA003108AB0018305D
:101DF0000310AB0CAA0CA90CA80CFF3E031DF82E77
:101E00002808B407290803110318013E0319092FF4
:101E1000B5072A0803110318013E0319102FB6074E
:101E20002B0803110318013E0319172FB7070830B9
:101E3000A8000310AE0DAF0DB00DB10DA80B192FFA
:101E400033083207A800A901A90D2808823EB8006E
:101E500029080318013EFF3EB9004B2F0130A800AE
:101E60000310B40DB50DB60DB70DA80B302FB11F73
:101E70003A2F3B2F3C2F34140130A8000310AE0D35
:101E8000AF0DB00DB10DA80B3E2FFF30B8070318F2
:101E9000B90AFF30B907B61F4E2F4F2F2E2FB201B0
:101EA000B11F532F542F702FFF302E05A800FF3085
:101EB0002F05A900FF303005AA007F303105AB00A7
:101EC0002B082A04290428040319672F682F6B2F75
:101ED000B201B20A702F341C6E2F6F2F702F682F33
:101EE00032080319742F752FA62F0130B407003064
:101EF00003180130B507003003180130B607003071
:101F000003180130B707371C862F872FA62F3408F8
:101F1000A8003508A9003608AA003708AB00013030
:101F2000AC002B0DAB0CAA0CA90CA80CAC0B912F80
:101F30002B08B7002A08B6002908B5002808B40005
:101F40000130B8070318B90A0030B9073908803AD8
:101F5000FF0080307F02031DAF2FFF303802031CCB
:101F6000B22FB32FBE2F7F3083120313B700803000
:101F7000B6000030B5000030B400F32F8312031315
:101F80003908803AFF0080307F02031DC92F0130DD
:101F900038020318CC2FCD2FD92F00308312031312
:101FA000B7000030B6000030B5000030B400AD011D
:101FB000F32F831203133808FF007F08B300FF30AC
:101FC000B405FF30B5057F30B6050030B705331CCA
:101FD000EA2FEB2FEC2FB6173308A8000310280CBC
:101FE000FF007F08B7002D08FF007F08B7043708FF
:101FF000A3003608A2003508A1003408A00008009C
:102006000A168A15D8200A168A1101300A168A1568
:102016008C210A168A110D30831603179500FB30A2
:102026009400940B1428950B14280800F8007808DF
:1020360003191E281F283328F31F22282328332894
:102046007009FA007109FB007209FC007309FD00B2
:10205600FA0A0319FB0A0319FC0A0319FD0A3B28AD
:102066007308FD007208FC007108FB007008FA0096
:102076007308720471047004031D422843284C2817
:102086000030F3000030F2000030F1000030F000C4
:10209600D2289630FF007F08F9005E280130FF0045
:1020A6007F08F90701300310FD0CFC0CFB0CFA0C41
:1020B600FF3E031D5628FE307D05031D6328642858
:1020C600512880280130FF007F08F9070130FA0700
:1020D600003003180130FB07003003180130FC07FD
:1020E600003003180130FD0701300310FD0CFC0C15
:1020F600FB0CFA0CFF3E031D7828FF307D05031DFF
:1021060085288628652892280130F9020130F400D6
:102116000310FA0DFB0DFC0DFD0DF40B8B28FC1BBB
:10212600952896289C280230790203189B289C281B
:10213600872879189F28A028A828FF30FA05FF309D
:10214600FB057F30FC05FF30FD050310F90C79080F
:10215600F400F501F601F70118300310F40DF50D42
:10216600F60DF70DFF3E031DB0287408FA04750836
:10217600FB047608FC047708FD0478080319C428D4
:10218600C528CA28F31FC828C928CA28FD177D08EC
:10219600F3007C08F2007B08F1007A08F0000800E2
:1021A6007008F8007108F9007208FA000310790D3A
:1021B6007A0DFF007F0883120313A5002508031D6F
:1021C600E528E628EF280030F3000030F200003062
:1021D600F1000030F0008F297408F8007508F90046
:1021E6007608FA000310790D7A0DFF007F08A40027
:1021F6002408031DFF2800290129E628F117FF30CE
:10220600F005FF30F1050030F205F517FF30F40553
:10221600FF30F5050030F6050030A3000030A200BF
:102226000030A1000030A0007F30A50298302407BE
:10223600F8007808A5021830FF007F08A4000130D6
:10224600F8000310A00DA10DA20DA30DF80B242973
:1022560076087202031D352975087102031D35299A
:1022660074087002031C3829392944297408F002BD
:102276007508031C750FF1027608031C760AF20234
:10228600201401300310F00DF10DF20DFF3E031D79
:1022960045290130A402031D512952292229A51FCF
:1022A6005529562970292508803A973E03185C2936
:1022B6005D295E29E62801300310A30CA20CA10CAF
:1022C600A00CFF3E031D5F290130FF007F08A50714
:1022D600031D6E296F295E29872918302502031CE4
:1022E600752976298229E6280130F8000310A00D09
:1022F600A10DA20DA30DF80B79290130A502250821
:10230600031D8629872977292308F3002208F2006E
:102316002108F1002008F0000800831203132708A3
:102326008039FF007F08B1002708A8002807FF00B2
:102336007F08B800A61FA029A129A22938143808A9
:102346000319A629A729B729380A031DAB29AC29E1
:10235600B4290030A7000030A6000030A5000030E8
:10236600A400A617A701BF290030A7000030A600C9
:102376000030A5000030A40023088039FF007F0844
:10238600B1062308A8002807FF007F08B900A21F8E
:10239600CD29CE29CF29391439080319D329D429AF
:1023A600E429390A031DD829D929E1290030A300D7
:1023B6000030A2000030A1000030A000A217A30147
:1023C600EC290030A3000030A2000030A10000304C
:1023D600A0002308220421042004031DF329F42964
:1023E6000D2A0030A7000030A6000030A5000030FE
:1023F600A4008030A6047F30A7043108FF007F08C0
:10240600A7042708A3002608A2002508A10024087F
:10241600A0006C2B3808031D112A122A1B2A003033
:10242600A3000030A2000030A1000030A0006C2BF9
:102436003808A800A9012908AB0039082802AA0013
:10244600031CAB032A087F3EB2002B080318013E8B
:10245600003EB3002708B0002608AF002508AE00EE
:102466002408AD000030A7000030A6000030A5000B
:102476000030A4000030B7000030B6000030B500D0
:102486000030B400B901912A390803194B2A4C2AA5
:102496006C2A0130A8000310AD0DAE0DAF0DB00DC6
:1024A600A80B4E2A0130A8000310A40DA50DA60DF9
:1024B600A70DA80B572AB71F612A622A632A24147C
:1024C6000130A8000310B40DB50DB60DB70DA80B5D
:1024D600652A23083002031D7A2A22082F02031DCB
:1024E6007A2A21082E02031D7A2A20082D02031CAF
:1024F6007D2A7E2A8D2A37172008AD022108031C63
:10250600210FAE022208031C220FAF022308031C70
:10251600230FB0020130FF007F08B9071A303902D5
:10252600031C962A972A472A30082F042E042D04C6
:1025360003199E2A9F2ABE2A3414BE2A0130A800F7
:102546000310A40DA50DA60DA70DA80BA32AB71F52
:10255600AD2AAE2AAF2A24140130A8000310B40D08
:10256600B50DB60DB70DA80BB12AFF30B20703188B
:10257600B30AFF30B307A61FC12AC22AA12AB9018E
:10258600B71FC62AC72AE32AFF303405A800FF3042
:102596003505A900FF303605AA007F303705AB00A8
:1025A6002B082A04290428040319DA2ADB2ADE2A3E
:1025B600B901B90AE32A241CE12AE22AE32ADB2A22
:1025C60039080319E72AE82A192B0130A407003035
:1025D60003180130A507003003180130A6070030A4
:1025E60003180130A707271CF92AFA2A192B2408F1
:1025F600A8002508A9002608AA002708AB00013074
:10260600AC002B0DAB0CAA0CA90CA80CAC0B042B24
:102616002B08A7002A08A6002908A5002808A40058
:102626000130B2070318B30A0030B3073308803A03
:10263600FF0080307F02031D222BFF303202031C75
:10264600252B262B342BFF3083120313B2000030C8
:10265600B3000030A7000030A6000030A50000300F
:10266600A400831203133308803AFF0080307F02F0
:10267600031D3F2B013032020318422B432B502BF4
:1026860083120313B201B3010030A7000030A60085
:102696000030A5000030A400B101831203133208F4
:1026A600FF007F08B800381C592B5A2B5C2BA61745
:1026B600602B7F30FF007F08A6053808A8000310AE
:1026C600280CFF007F08A7003108FF007F08A70439
:1026D600042A080083120313CD006E304D02031C3A
:1026E600752B762B832C3F30A3000030A2000030E0
:1026F600A1000030A0006430F5000030F6004D085F
:10270600BE00BF013E08F7003F08F8000A168A150A
:1027160013230A168A11750883120313C0000130A9
:102726000310C00DFF3E031D932B0310400D7D3E8D
:1027360084000A168A150A200A168A11C1000A168A
:102746008A150A200A168A11C2000A168A150A2054
:102756000A168A11C3000A168A150A200A168A1151
:10276600C4004408A7004308A6004208A500410883
:10277600A4000A128A159F240A168A1183120313CB
:102786002308CC002208CB002108CA002008C90073
:102796000A30F5000030F6004D08BE00BF013E08C5
:1027A600F2003F08F3006430F0000030F1000A1632
:1027B6008A159E220A168A117108F8007008F70019
:1027C6000A168A1513230A168A117508831203132B
:1027D600C00001300310C00DFF3E031DED2B03109A
:1027E600400D593E84000A168A150A200A168A11D7
:1027F600C1000A168A150A200A168A11C2000A168C
:102806008A150A200A168A11C3000A168A150A2092
:102816000A168A11C4004408A3004308A20042080D
:10282600A1004108A0004C08A7004B08A6004A08D2
:10283600A5004908A4000A128A159F240A168A11BF
:10284600831203132308C8002208C7002108C60004
:102856002008C5000A30F0000030F1004D08BE0027
:10286600BF013E08F2003F08F3000A168A159E22B1
:102876000A168A11700883120313C0000130031070
:10288600C00DFF3E031D422C0310400D353E840053
:102896000A168A150A200A168A11C1000A168A150E
:1028A6000A200A168A11C2000A168A150A200A1672
:1028B6008A11C3000A168A150A200A168A11C4004C
:1028C6004408A3004308A2004208A1004108A00052
:1028D6004808A7004708A6004608A5004508A40022
:1028E6000A128A159F240A168A11831203132308D3
:1028F600BD002208BC002108BB002008BA00772DC5
:102906000B304D02031C882C892C342D3F30A3003C
:102916000030A2000030A1000030A0000A30F5000F
:102926000030F6004D08BE00BF013E08F7003F0824
:10293600F8000A168A1513230A168A1175088312D7
:102946000313C00001300310C00DFF3E031DA62C6B
:102956000310400D593E84000A168A150A200A16ED
:102966008A11C1000A168A150A200A168A11C2009F
:102976000A168A150A200A168A11C3000A168A152B
:102986000A200A168A11C4004408A7004308A600B4
:102996004208A5004108A4000A128A159F240A16B7
:1029A6008A11831203132308CC002208CB002108C6
:1029B600CA002008C9000A30F0000030F1004D08B6
:1029C600BE00BF013E08F2003F08F3000A168A1552
:1029D6009E220A168A11700883120313C000013062
:1029E6000310C00DFF3E031DF32C0310400D353EB2
:1029F60084000A168A150A200A168A11C1000A16C8
:102A06008A150A200A168A11C2000A168A150A2091
:102A16000A168A11C3000A168A150A200A168A118E
:102A2600C4004408A3004308A2004208A1004108CC
:102A3600A0004C08A7004B08A6004A08A5004908B4
:102A4600A4000A128A159F240A168A1183120313F8
:102A56002308BD002208BC002108BB002008BA00DC
:102A6600772D3F30A3000030A2000030A1000030D7
:102A7600A0004D08BE0001300310BE0DFF3E031D31
:102A86003F2D03103E0D353E84000A168A150A2096
:102A96000A168A11BF000A168A150A200A168A1112
:102AA600C0000A168A150A200A168A11C1000A16DB
:102AB6008A150A200A168A11C2004208A700410890
:102AC600A6004008A5003F08A4000A128A159F2404
:102AD6000A168A11831203132308BD002208BC00BC
:102AE6002108BB002008BA0008008312031351080E
:102AF6008039FF007F08DE005108D6005607FF0028
:102B06007F08E000D01F882D892D8A2D601460086B
:102B160003198E2D8F2D9F2D600A031D932D942D45
:102B26009C2D0030D1000030D0000030CF000030A6
:102B3600CE00D017D101A72D0030D1000030D00033
:102B46000030CF000030CE0055088039FF007F08E6
:102B5600DF005F085E060319B12DB22DB32D5E1797
:102B66005508D6005607FF007F08DF00D41FBC2D8E
:102B7600BD2DBE2D5F145F080319C22DC32DD32DA5
:102B86005F0A031DC72DC82DD02D0030D50000309B
:102B9600D4000030D3000030D200D417D501DB2D8D
:102BA6000030D5000030D4000030D3000030D20011
:102BB60060085F020318E02DE12D252E5E1FE42D2F
:102BC600E52DE92D8030FF007F08DE066008FF0056
:102BD6007F08E1005F08FF007F08E0006108FF0052
:102BE6007F08DF004E08FF007F08E1005208FF0063
:102BF6007F08CE006108FF007F08D2004F08FF0063
:102C06007F08E1005308FF007F08CF006108FF003E
:102C16007F08D3005008FF007F08E1005408FF003A
:102C26007F08D0006108FF007F08D4005108FF002C
:102C36007F08E1005508FF007F08D1006108FF000A
:102C46007F08D500E1015F08D600D7015708D900F3
:102C560060085602D800031CD9035908803AFF00C1
:102C660080307F02031D392E1A305802031C3C2E79
:102C76003D2E7A2E83120313510850044F044E043E
:102C8600031D462E482E0130492E0030FF007F08D6
:102C9600E1000030D1000030D0000030CF0000301D
:102CA600CE005F08FF007F08E000822E611C5C2ECC
:102CB6005D2E662E6108D6000310560C0138FF0003
:102CC6007F08E100682E0310E10C4E1C6B2E6C2E63
:102CD6006D2EE1170130D600510DD10CD00CCF0C62
:102CE600CE0CD60B6F2E0130FF007F08E007831253
:102CF60003135F086002031C812E822E592E5E1B71
:102D0600852E862ED12E6008031D8A2E8B2E942E9C
:102D16000030D1000030D0000030CF000030CE00AF
:102D2600FF2F5208CE07530803110318013E03195B
:102D36009D2ECF07540803110318013E0319A42E34
:102D4600D007550803110318013E0319AB2ED1070E
:102D5600511CAE2EAF2E852F611CB22EB32EBC2E6B
:102D66006108D6000310560C0138FF007F08E10009
:102D7600BE2E0310E10C4E1CC12EC22EC32EE1172F
:102D86000130D600510DD10CD00CCF0CCE0CD60B89
:102D9600C52E0130FF007F08E007852F5108803AD5
:102DA600FF005508803A7F02031DE32E54085002A7
:102DB600031DE32E53084F02031DE32E52084E0255
:102DC6000318E62EE72E3F2FFF30D600FF30D70040
:102DD600FF30D800FF30D9005208DA005308DB0074
:102DE6005408DC005508DD004E08DA024F08031CC3
:102DF6004F0FFE2EFF2EDB025008031C500F042F30
:102E0600052FDC025108031C510F0A2F0B2FDD0280
:102E16005A08D6075B0803185B0F122F132FD70724
:102E26005C0803185C0F182F192FD8075D080318C4
:102E36005D0AD9075908D1005808D0005708CF00B5
:102E46005608CE008030FF007F08DE06E109E10A61
:102E56006108031D2F2F302F4D2F0130CE07003074
:102E660003180130CF07003003180130D0070030B7
:102E760003180130D1074D2F5208CE025308031C08
:102E8600530FCF025408031C540FD0025508031CDD
:102E9600550FD102510850044F044E04031D542F00
:102EA600552F812F6108031D592F5A2F812F00306E
:102EB600D1000030D0000030CF000030CE00FF2F10
:102EC6000130D6000310CE0DCF0DD00DD10DD60B8F
:102ED600652FE11F6F2F702F712F4E14611C742FF9
:102EE600752F782F0314E10D7A2F0310E10D60087A
:102EF60003197E2F7F2F812F0130E002D01F842FF0
:102F0600852F632FDF01E11F892F8A2F982F6108F4
:102F16007F3903198F2F902F932FDF01DF0A982F08
:102F26004E1C962F972F982F902F5F0803199C2FD2
:102F36009D2FD12F0130CE07003003180130CF0767
:102F4600003003180130D007003003180130D107D4
:102F5600511CAE2FAF2FD12F4E08D6004F08D700E9
:102F66005008D8005108D9000130DA00590DD90CA3
:102F7600D80CD70CD60CDA0BB92F5908D100580843
:102F8600D0005708CF005608CE00600A0319CC2F90
:102F9600CD2FD12F0130FF007F08E007600A03190B
:102FA600D52FD62FDB2F6008031DDA2FDB2FE92F55
:102FB6000030D1000030D0000030CF000030CE000D
:102FC6006008031DE72FE82FE92FDE01601CEC2FB8
:102FD600ED2FEF2FD017F32F7F30FF007F08D0059E
:102FE6006008D6000310560CFF007F08D100DE1FD4
:102FF600FD2FFE2FFF2FD1170800FF1B0A28831372
:103006007F1883170008840A0319FF0A080018307E
:103016008A000408840A82070034003400348034AD
:103026003F34003400342034413400340034C83492
:103036004234003400347A344434003440341C348E
:10304600463400345034C3344734003424347434A2
:1030560049348034963418344B342034BC34BE346E
:103066004C3428346B346E344E34F934023415340F
:103076005034EC347834AD346034CA34F2344934E4
:1030860071340034003480343F34CD34CC34CC3405
:103096003D340A34D73423343C346F341234833409
:1030A6003A341734B734D1343834AC34C5342734D1
:1030B6003734BD343734863435349534BF34D6345A
:1030C60033347734CC342B3432345F34703489342F
:1030D6003034FF34E634DB342E340834E5343C3403
:1030E6001E3460344234A2340D34013400340034CA
:1030F60000340A34003400340034643400340034BC
:103106000034E834033400340034103427340034F7
:103116000034A034863401340034403442340F3451
:10312600003480349634983400340034E134F53475
:1031360005340034CA349A343B3454343634473474
:1031460031342D3444344934473452340034253430
:0A315600643400342534663400347C
:1031A0008312031305110800831203130515080089
:1031B00083120313051108008312031385110800FD
:1031C00083120313051508002030831203138606AB
:1031D000080064008001840A040603190034040610
:1031E000EA288316031305120611861083160317A7
:1031F000091009120800730872047104700403199D
:103200000229032905298030F306080083160313D9
:1032100081128111073081043C3083120313810035
:103220008B160800F4000A168A15D0200A168A1593
:103230007408803E0A168A1554210A168A15080059
:10324000831603138612831603178912831603133A
:10325000861306178113151716178B15080083168A
:10326000031794000A168A15D8200A168A158316A1
:1032700003171408803E0A168A158C210A168A152F
:103280000800831603136E1C462947294F296E1028
:1032900001308316031790000030910053298316E4
:1032A0000317900191010800F3007308F200043045
:1032B0000310F20CFF3E031D582972080A168A15E6
:1032C00057230A168A1573080A168A1557230A16F1
:1032D0008A154230F200F20B6B2900000800F00062
:1032E000802910308312031385068B290430831242
:1032F000031386068B2902308312031386068B295B
:103300007008013A03197129033A03197629013A21
:1033100003197B298B2908008316031793001308D0
:10332000920004300310920CFF3E031D92291208F4
:103330000A168A15EB230A168A1583160317130833
:103340000A168A15EB230A168A15413083160317CD
:103350009200920BA929AC290800F1007108F00035
:1033600006300310F00CFF3E031DB129700801392F
:10337000FF007F08F2007208031DBF29C029C82979
:10338000831603136F03031DC629C729C8296E14AA
:103390007208FF007F0883160313EF0008008030D7
:1033A00083120313E5066908D1006808D000670896
:1033B000CF006608CE006508D5006408D400630815
:1033C000D3006208D2000A168A1178250A168A15D7
:1033D000831203135108E5005008E4004F08E3008E
:1033E0004E08E2000800F401F501701CF829F929E3
:1033F000FF297208F4070318F50A7308F50701306E
:103400000310F20DF30DFF3E031D002A01300310DF
:10341000F10CF00CFF3E031D072A70087104031D18
:10342000122A132AF5297508F1007408F000080023
:10343000F800F401F5017008F200F3017208F600DB
:103440007308F700781C252A262A2C2A7608F40708
:103450000318F50A7708F50701300310F60DF70D8C
:10346000FF3E031D2D2A0310F80C7808031D392A8E
:103470003A2A222A7508F1007408F00008000A169A
:103480008A15D4200A168A15592A7508FF0074086F
:1034900084000A168A1500200A168A150A168A154B
:1034A00054210A168A150130F4070318F50A003072
:1034B000F507750883120313FF00740884000A16C9
:1034C0008A1500200A168A15003A031D682A692AFF
:1034D000452A0800872A8312031386171A30831699
:1034E00003179300F7309200920B742A930B742AFF
:1034F000792A8312031386131A3083160317930055
:10350000F7309200920B822A930B822A872A831625
:103510000317110893009003100A920003199103F6
:103520001308803AFF0080307F02031D992A013082
:10353000120203189C2A9D2A6B2A08007008710445
:103540000319A32AA42AD32AF401F40AB22A0130C7
:103550000310F00DF10DFF3E031DA82A0130FF00FE
:103560007F08F407F11FB52AB62AA72A710873024B
:10357000031DBC2A70087202031CBF2AC02AC62A77
:103580007008F2027108031CF303F3020130031008
:10359000F10CF00CFF3E031DC72A0130F402031D9D
:1035A000D22AD32AB62A7308F1007208F000080064
:1035B0000A168A15E0200A168A15FC2A83160317B4
:1035C000150883120313FF008316031714088400E1
:1035D000831203130A168A1500200A168A150A1682
:1035E0008A158C210A168A15013083160317940751
:1035F0000318950A003095078316031715088312E0
:103600000313FF00831603171408840083120313A7
:103610000A168A1500200A168A15003A031D112B76
:10362000122BDE2A0800F901FA0175087604031945
:103630001A2B1B2B522BFB01FB0A292B01300310E9
:10364000F50DF60DFF3E031D1F2B0130FF007F0817
:10365000FB07F61F2C2B2D2B1E2B01300310F90D11
:10366000FA0DFF3E031D2E2B76087802031D3A2B20
:1036700075087702031C3D2B3E2B452B7508F7027E
:103680007608031CF803F802791401300310F60CD5
:10369000F50CFF3E031D462B0130FB02031D512B91
:1036A000522B2D2B7A08F6007908F5000800F1005E
:1036B00071185B2B5F2B831203130714622B831289
:1036C000031307107108F00001300310F00CFF3EE7
:1036D000031D652B70186D2B712B83120313871537
:1036E000742B8312031387117108F000023003104A
:1036F000F00CFF3E031D772B70187F2B832B83125A
:1037000003130716862B8312031307127108F000A8
:1037100003300310F00CFF3E031D892B7018912B12
:10372000952B831203138716982B8312031387128A
:103730000614061406140610080000307005F80080
:1037400000307105F90080307205FA007F30730592
:10375000FB007B087A0479047804031DB02BB12B9D
:10376000B92B0030F3000030F2000030F1000030DF
:10377000F00000307405F80000307505F900803065
:103780007605FA007F307705FB007B087A04790420
:103790007804031DCC2BCD2BD52B0030F700003047
:1037A000F6000030F5000030F40077087306031DC2
:1037B000E32B76087206031DE32B75087106031DC3
:1037C000E32B740870060319E62BE72BE92B031093
:1037D000EA2B031408008316031791001118F12B2C
:1037E000F52B831203130714F82B8312031307100E
:1037F000831603171108900001300310900CFF3E50
:10380000031DFD2B1018052C092C8312031387159B
:103810000C2C8312031387118316031711089000D1
:1038200002300310900CFF3E031D112C1018192CB0
:103830001D2C831203130716202C83120313071267
:10384000831603171108900003300310900CFF3EFD
:10385000031D252C10182D2C312C831203138716D1
:10386000342C831203138712061406140614061050
:1038700008008312031323082204210420040319DF
:10388000422C432C862CA901A90A532C0130A800F4
:103890000310A00DA10DA20DA30DA80B482C013003
:1038A000FF007F08A907A31F562C572C462C23087E
:1038B0002702031D652C22082602031D652C210802
:1038C0002502031D652C20082402031C682C692C8A
:1038D000772C2008A4022108031C210FA50222082E
:1038E000031C220FA6022308031C230FA70201308A
:1038F0000310A30CA20CA10CA00CFF3E031D782CFE
:103900000130A902031D852C862C572C2708A30003
:103910002608A2002508A1002408A000080083169C
:103920000313061083160317091283160313851158
:1039300083160317881183160313051183160317C3
:103940000811C630FF007F08831603138705831212
:10395000031306100A168A15DC200A168A150A16A1
:103960008A15D8200A168A15623083160317950027
:1039700065309400940BBA2C950BBA2C02300A16C1
:103980008A158C210A168A150D30831603179500A7
:10399000FB309400940BCA2C950BCA2C28300A16C5
:1039A0008A158C210A168A1508300A168A158C2168
:1039B0000A168A150F300A168A158C210A168A15DE
:1039C00006300A168A158C210A168A150800F50198
:1039D000F31FEB2CEC2CF32CF209F309F20A031978
:1039E000F30AF501F50AF11FF62CF72CFC2CF0096F
:1039F000F109F00A0319F10A700871040319012D85
:103A0000022D312DF401F40A102D01300310F00DB8
:103A1000F10DFF3E031D062D0130FF007F08F40766
:103A2000F11F132D142D052D71087302031D1A2D7E
:103A300070087202031C1D2D1E2D242D7008F20229
:103A40007108031CF303F30201300310F10CF00CB6
:103A5000FF3E031D252D0130F402031D302D312DB5
:103A6000142D75080319352D362D3B2DF209F30958
:103A7000F20A0319F30A7308F1007208F000080053
:103A8000831603179301940195018316031796017A
:103A90009701831603171308831203178D003F3015
:103AA000FF007F08831603178C050C14831203177D
:103AB0000C08FF008316031714089000023003104F
:103AC000900DFF3E031D5F2DD330100791001608A7
:103AD00011079200120884007F08831380000130D0
:103AE000FF007F089307013096070318970A0030FC
:103AF00097071708803AFF0080307F02031D822D50
:103B000004301602031C852D862D492D01308316A5
:103B1000031794070318950A003095071508803A93
:103B2000FF0080307F02031D972D04301402031C18
:103B30009A2D9B2D452D08000030FC000030FB0025
:103B40000030FA000030F900730872047104700448
:103B50000319AB2DAC2DF92DFD01FD0ABC2D013053
:103B6000F8000310F00DF10DF20DF30DF80BB12D6F
:103B70000130FF007F08FD07F31FBF2DC02DAF2DC3
:103B80000130F8000310F90DFA0DFB0DFC0DF80BD8
:103B9000C22D73087702031DD72D72087602031D0C
:103BA000D72D71087502031DD72D70087402031CF0
:103BB000DA2DDB2DEA2D7008F4027108031C710F59
:103BC000F5027208031C720FF6027308031C730FD0
:103BD000F702791401300310F30CF20CF10CF00C25
:103BE000FF3E031DEB2D0130FD02031DF82DF92DC5
:103BF000C02D7C08F3007B08F2007A08F1007908F8
:103C0000F0000800FB01F71F062E072E0E2EF60906
:103C1000F709F60A0319F70AFB01FB0AF91F112E2F
:103C2000122E1B2EF809F909F80A0319F90A0130B6
:103C3000FF007F08FB06FC01FD01760877040319ED
:103C4000222E232E5A2EFA01FA0A312E01300310A9
:103C5000F60DF70DFF3E031D272E0130FF007F08F4
:103C6000FA07F71F342E352E262E01300310FC0DD7
:103C7000FD0DFF3E031D362E77087902031D422EEF
:103C800076087802031C452E462E4D2E7608F80243
:103C90007708031CF903F9027C1401300310F70CB8
:103CA000F60CFF3E031D4E2E0130FA02031D592E65
:103CB0005A2E352E7B0803195E2E5F2E642EFC09CA
:103CC000FD09FC0A0319FD0A7D08F7007C08F600CF
:103CD000080083160313EB01EC01E901EA01E70197
:103CE000E801E501E601E301E401ED01ED0A0A1650
:103CF0008A1506210A168A150A128A11F1270A1650
:103D00008A150A168A1540250A168A150A168A1572
:103D100020210A168A150A168A158F240A168A1572
:103D20000A168A15F1200A168A158B176430831635
:103D300003179000003091000A168A156A220A16AD
:103D40008A15003083160317940095000A128A150D
:103D500000200A168A1500300A168A152F210A1625
:103D60008A159130831603179400803095000A1647
:103D70008A15D8220A168A150A168A1103200A16ED
:103D80008A150A168A1541210A168A158316031701
:103D9000100811040319CD2ECE2ED32E0A168A1523
:103DA000E4200A168A1507308316031799007C3021
:103DB0009800980BD92E990BD92E0000C12E0A120B
:103DC0008A1116280310831203133C0D3D0DFF00CA
:103DD0007F08C3004308031DEE2EEF2EF82E00309F
:103DE000BD000030BC000030BB000030BA005D2FC9
:103DF0003A08BE003B08BF003C08C0003D08C100B7
:103E00001F300310C10CC00CBF0CBE0CFF3E031DC5
:103E1000012F3E08FF007F08C200BC17FF30BA0523
:103E2000FF30BB05FF30BC050030BD059630C30236
:103E3000C31F1B2F1C2F362F4308803A973E0318B1
:103E4000222F232F242FEF2E01300310BD0CBC0C8A
:103E5000BB0CBA0CFF3E031D252F0130FF007F086D
:103E6000C307031D342F352F242F4D2F203043023D
:103E7000031C3B2F3C2F482FEF2E0130BE000310B8
:103E8000BA0DBB0DBC0DBD0DBE0B3F2F0130C302E3
:103E90004308031D4C2F4D2F3D2F42080319512F6E
:103EA000522F5D2FBA09BB09BC09BD09BA0A031913
:103EB000BB0A0319BC0A0319BD0A080000307005CB
:103EC000F80000307105F90080307205FA007F308B
:103ED0007305FB007B087A0479047804031D712FB5
:103EE000722F7A2F0030F3000030F2000030F10022
:103EF0000030F00000307405F80000307505F9005E
:103F000080307605FA007F307705FB007B087A0465
:103F100079047804031D8D2F8E2F962F0030F70023
:103F20000030F6000030F5000030F400F31F992F48
:103F30009A2FBE2F0030F8000030F9000030FA0050
:103F40008030FB007008F8027108031C710FA92F64
:103F5000AA2FF9027208031C720FAF2FB02FFA02BA
:103F60007308031C730FB52FB62FFB027B08F300F9
:103F70007A08F2007908F1007808F000F71FC12FE5
:103F8000C22FE62F0030F8000030F9000030FA00B0
:103F90008030FB007408F8027508031C750FD12FE0
:103FA000D22FF9027608031C760FD72FD82FFA02EA
:103FB0007708031C770FDD2FDE2FFB027B08F7004D
:103FC0007A08F6007908F5007808F4008030F306E6
:103FD0008030F70677087302031DF82F7608720207
:103FE000031DF82F75087102031DF82F7408700265
:103FF0000318FB2FFC2FFE2F0310FF2F03140800C4
:04400E00F32FFF3F4E
:1042000000000100FF000000FF00000000000100AE
:10421000010000000000FF000000FF00010000009E
:00000001FF
