:020000040000FA
:100000000A128A110E280134FE00030EF5000408BE
:10001000F6000A08F7000A128A15682C0A128A11DB
:1000200011280A128A1103200A128A11FA00E60125
:10003000E701E801E901F90183010A128A15FB2EA3
:100040008312031331088039B6003608BB0031082B
:10005000B6003607B7003708C100B01F3028312876
:100060003228411441080319362837284628410A06
:10007000031D3B283C2844280030B1000030B0006C
:100080000030AF000030AE00B0174E280030B10095
:100090000030B0000030AF000030AE0035088039CD
:1000A000B6003608BB063508B6003607B700370875
:1000B000C000B41F5C285D285E2840144008031966
:1000C000622863287228400A031D67286828702860
:1000D0000030B5000030B4000030B3000030B20092
:1000E000B4177A280030B5000030B4000030B300F7
:1000F0000030B200400803197E287F288428410878
:10010000031D832884288D280030B1000030B00002
:100110000030AF000030AE00802B2E08B60036084D
:10012000A00034080A128A15DE230A128A118312EB
:1001300003132108C7002008C6004608B600B7010F
:10014000B801B9013908BF003808BE003708BD0042
:100150003608BC004708B600B701B801B901390834
:10016000C5003808C4003708C3003608C2002F088D
:10017000B6003608A00033080A128A15DE230A12D8
:100180008A11831203132108C7002008C6004608FD
:10019000B600B701B801B9013608BC07370803112A
:1001A0000318013E0319D528BD07380803110318A9
:1001B000013E0319DC28BE07390803110318013E6C
:1001C0000319E328BF074708B600B701B801B90112
:1001D0003608C207370803110318013E0319F12836
:1001E000C307380803110318013E0319F828C40790
:1001F000390803110318013E0319FF28C507300809
:10020000B6003608A00032080A128A15DE230A1248
:100210008A11831203132108C7002008C60046086C
:10022000B600B701B801B9013608BC073708031199
:100230000318013E03191D29BD07380803110318CF
:10024000013E03192429BE07390803110318013E92
:1002500003192B29BF074708B600B701B801B90138
:100260003608C207370803110318013E031939295C
:10027000C307380803110318013E03194029C407B6
:10028000390803110318013E03194729C50708302F
:10029000B6000310BC0DBD0DBE0DBF0DB60B492938
:1002A0002F08B6003608A00032080A128A15DE238D
:1002B0000A128A11831203132108C7002008C600FE
:1002C0004608B6004708B700B801B9013608BC07B0
:1002D000370803110318013E03196F29BD073808B9
:1002E00003110318013E03197629BE0739080311CB
:1002F0000318013E03197D29BF072E08B6003608F2
:10030000A00033080A128A15DE230A128A1183120A
:1003100003132108C7002008C6004608B600470896
:10032000B700B801B9013608BC0737080311031834
:10033000013E03199C29BD07380803110318013E2B
:100340000319A329BE07390803110318013E031935
:10035000AA29BF070830B6000310BC0DBD0DBE0DA5
:10036000BF0DB60BAC292E08B6003608A000320827
:100370000A128A15DE230A128A1183120313210836
:10038000C7002008C6004608B6004708B700B801F5
:10039000B9013608BC07370803110318013E0319D9
:1003A000D229BD07380803110318013E0319D929C2
:1003B000BE07390803110318013E0319E029BF07DE
:1003C0002F08B6003608A00034080A128A15DE236A
:1003D0000A128A11831203132108C7002008C600DD
:1003E0004608B6004708B700B801B9013608C20789
:1003F000370803110318013E0319FF29C307380802
:1004000003110318013E0319062AC4073908031112
:100410000318013E03190D2AC5073008B600360837
:10042000A00033080A128A15DE230A128A118312E9
:1004300003132108C7002008C6004608B600470875
:10044000B700B801B9013608C2073708031103180D
:10045000013E03192C2AC307380803110318013E73
:100460000319332AC407390803110318013E03197D
:100470003A2AC5073008B6003608A00034080A1228
:100480008A15DE230A128A11831203132108C7007A
:100490002008C6004608B6004708B700B801B901F1
:1004A00008300310B60DB70DB80DB90DFF3E031D92
:1004B000512A3608C207370803110318013E0319F1
:1004C000622AC307380803110318013E0319692A79
:1004D000C407390803110318013E0319702AC50720
:1004E0003C08B6003D08B7003E08B8003F08B90018
:1004F00018300310B90CB80CB70CB60CFF3E031D36
:10050000792A3608C207370803110318013E031978
:100510008A2AC307380803110318013E0319912AD8
:10052000C407390803110318013E0319982AC507A7
:100530000830B6000310BC0DBD0DBE0DBF0DB60BCF
:100540009A2A41084007B600B701B70D3608823E27
:10055000C60037080318013EFF3EC700CC2A013011
:10056000B6000310C20DC30DC40DC50DB60BB12AE4
:10057000BF1FBB2ABC2ABD2A42140130B60003109B
:10058000BC0DBD0DBE0DBF0DB60BBF2AFF30C6079B
:100590000318C70AFF30C707C41FCF2AD02AAF2AC3
:1005A000C001BF1FD42AD52AF12AFF303C05B6006E
:1005B000FF303D05B700FF303E05B8007F303F05F6
:1005C000B90039083804370436040319E82AE92A3F
:1005D000EC2AC001C00AF12A421CEF2AF02AF12AB3
:1005E000E92A40080319F52AF62A272B0130C20709
:1005F000003003180130C307003003180130C4076E
:10060000003003180130C507451C072B082B272B8A
:100610004208B6004308B7004408B8004508B900CE
:100620000130BA00390DB90CB80CB70CB60CBA0BC6
:10063000122B3908C5003808C4003708C300360833
:10064000C2000130C6070318C70A0030C7074708B1
:10065000803AFF0080307F02031D302BFF304602BE
:10066000031C332B342B3F2B7F3083120313C50025
:100670008030C4000030C3000030C200742B8312ED
:1006800003134708803AFF0080307F02031D4A2B86
:100690000130460203184D2B4E2B5A2B003083128B
:1006A0000313C5000030C4000030C3000030C20096
:1006B000BB01742B831203134608B6003608C10031
:1006C000FF30C205FF30C3057F30C4050030C505CB
:1006D000411C6B2B6C2B6D2BC4174108B60003100B
:1006E000360CB7003708C5003B08B6003608C5040D
:1006F0004508B1004408B0004308AF004208AE000E
:1007000008008312031323088039A8002808B000CA
:100710002308A8002807A9002908B200A21F912BCE
:10072000922B932B321432080319972B982BA82B5A
:10073000320A031D9C2B9D2BA52B0030A3000030FB
:10074000A2000030A1000030A000A217A301B02B2E
:100750000030A3000030A2000030A1000030A00053
:1007600027088039A8002808B1003108300603198D
:10077000BA2BBB2BBC2B30172708A8002807A900D1
:100780002908B100A61FC52BC62BC72B3114310871
:100790000319CB2BCC2BDC2B310A031DD02BD12BF7
:1007A000D92B0030A7000030A6000030A500003093
:1007B000A400A617A701E42B0030A7000030A60074
:1007C0000030A5000030A400320831020318E92BE4
:1007D000EA2B2E2C301FED2BEE2BF22B8030A800B5
:1007E0002808B0063208A8002808B3003108A8007D
:1007F0002808B2003308A8002808B1002008A80083
:100800002808B3002408A8002808A0003308A8007E
:100810002808A4002108A8002808B3002508A8007B
:100820002808A1003308A8002808A5002208A8006D
:100830002808B3002608A8002808A2003308A8004A
:100840002808A6002308A8002808B3002708A80045
:100850002808A3003308A8002808A700B30131081E
:10086000A800A9012908AB0032082802AA00031C2D
:10087000AB032B08803AFF0080307F02031D422C1F
:100880001A302A02031C452C462C832C8312031396
:100890002308220421042004031D4F2C512C013075
:1008A000522C0030A8002808B3000030A30000300C
:1008B000A2000030A1000030A0003108A8002808E4
:1008C000B2008B2C331C652C662C6F2C3308A800CF
:1008D0000310280C0138A9002908B300712C03105B
:1008E000B30C201C742C752C762CB3170130A80087
:1008F000230DA30CA20CA10CA00CA80B782C01308A
:10090000A8002808B2078312031331083202031C1F
:100910008A2C8B2C622C301B8E2C8F2CDA2C3208DC
:10092000031D932C942C9D2C0030A3000030A200BA
:100930000030A1000030A000082E2408A0072508E0
:1009400003110318013E0319A62CA1072608031161
:100950000318013E0319AD2CA20727080311031841
:10096000013E0319B42CA307231CB72CB82C8E2DE1
:10097000331CBB2CBC2CC52C3308A8000310280C3E
:100980000138A9002908B300C72C0310B30C201CA0
:10099000CA2CCB2CCC2CB3170130A800230DA30CF0
:1009A000A20CA10CA00CA80BCE2C0130A80028088A
:1009B000B2078E2D2308803AFF002708803A7F0275
:1009C000031DEC2C26082202031DEC2C2508210215
:1009D000031DEC2C240820020318EF2CF02C482DCA
:1009E000FF30A800FF30A900FF30AA00FF30AB00A5
:1009F0002408AC002508AD002608AE002708AF008B
:100A00002008AC022108031C210F072D082DAD0280
:100A10002208031C220F0D2D0E2DAE022308031CED
:100A2000230F132D142DAF022C08A8072D0803182F
:100A30002D0F1B2D1C2DA9072E0803182E0F212D5D
:100A4000222DAA072F0803182F0AAB072B08A30093
:100A50002A08A2002908A1002808A0008030A800C8
:100A60002808B006B309B30A3308031D382D392D01
:100A7000562D0130A007003003180130A1070030C7
:100A800003180130A207003003180130A307562DC8
:100A90002408A0022508031C250FA1022608031C18
:100AA000260FA2022708031C270FA30223082204F3
:100AB00021042004031D5D2D5E2D8A2D3308031DA6
:100AC000622D632D8A2D0030A3000030A20000307B
:100AD000A1000030A000082E0130A8000310A00DD6
:100AE000A10DA20DA30DA80B6E2DB31F782D792D8E
:100AF0007A2D2014331C7D2D7E2D812D0314B30DF2
:100B0000832D0310B30D32080319872D882D8A2DEC
:100B10000130B202A21F8D2D8E2D6C2DB101B31F9D
:100B2000922D932DA12D33087F390319982D992DDE
:100B30009C2DB101B10AA12D201C9F2DA02DA12D0E
:100B4000992D31080319A52DA62DDA2D0130A00706
:100B5000003003180130A107003003180130A2074C
:100B6000003003180130A307231CB72DB82DDA2D50
:100B70002008A8002108A9002208AA002308AB0029
:100B80000130AC002B0DAB0CAA0CA90CA80CAC0BC3
:100B9000C22D2B08A3002A08A2002908A1002808BA
:100BA000A000320A0319D52DD62DDA2D0130A80068
:100BB0002808B207320A0319DE2DDF2DE42D320892
:100BC000031DE32DE42DF22D0030A3000030A20020
:100BD0000030A1000030A0003208031DF02DF12DDF
:100BE000F22DB001321CF52DF62DF82DA217FC2D9B
:100BF0007F30A8002808A2053208A8000310280C9E
:100C0000A9002908A300B01F062E072E082EA3173F
:100C1000080083120313BB002F30B1003108B40069
:100C2000B62F25303C060319162E172E232E3C080E
:100C3000B1003B0884003108831380000130B1000B
:100C40003108BB07B62FB901BA01B8012C2E3815EF
:100C50000130B1003108AE072E0884000A128A1153
:100C6000D7270A128A11303A0319272E372E2E0859
:100C700084000A128A11D7270A128A110A128A15C9
:100C8000CD220A128A11031C462E472E872E83126C
:100C90000313B901BA010A3083120313A000003014
:100CA000A1003A08A3003908A2000A128A15B72346
:100CB0000A128A11831203132108BA002008B9000E
:100CC0002E0884000A128A11D7270A128A11D03EF0
:100CD000B100FF3003180030B2003108B907031823
:100CE000BA0A3208BA070130B1003108AE072E083F
:100CF00084000A128A11D7270A128A110A128A1549
:100D0000CD220A128A110318862E872E4B2E01300F
:100D100083120313AE07FF302E0784000A128A11D4
:100D2000D7270A128A11BC00003A0319C82F643A67
:100D300003199E2E0D3A03199E2EB62F34088400F7
:100D400083130008B600840A0008B7000230B1001F
:100D50003108B407B71FAD2EAE2EB72E0330B10049
:100D60003108B804B609B709B60A0319B70ABC01B5
:100D7000BC0A3C08B1003107013E84000A128A1106
:100D8000D7270A128A11B2000A128A11D7270A122B
:100D90008A11B30033083702031DD02E3208360201
:100DA0000318D32ED42ED52EDF2E0130B1003108FA
:100DB000BC0705303C06031DDE2EDF2EB92E390898
:100DC0003A040319E42EE52EF12E380803390319ED
:100DD000EA2EEB2EF12EFF30B9070318BA0AFF30C6
:100DE000BA073A08803A803C031DF82E39083C02C5
:100DF0000318FB2EFC2E082F831203133C08B100AE
:100E0000B2013108B9023208031CBA03BA020C2F2E
:100E100083120313B901BA01381D0F2F102F3F2F72
:100E2000380803390319152F162F212F2D30B10043
:100E30003B0884003108831380000130B100310881
:100E4000BB0739083A040319262F272F6D2F30309E
:100E5000B1003B0884003108831380000130B100E9
:100E60003108BB07FF30B9070318BA0AFF30BA07C9
:100E700039083A04031D3D2F3E2F272F6D2F3908C7
:100E80003A040319442F452F5C2F2030B1003B0852
:100E900084003108831380000130B1003108BB07A2
:100EA000FF30B9070318BA0AFF30BA0739083A0405
:100EB000031D5B2F5C2F452F380803390319612F61
:100EC000622F6D2F2D30B1003B0884003108831351
:100ED00080000130B1003108BB073C08B100310887
:100EE000B500AD2F0A30A8000030A9003508B100C8
:100EF0003107013E84000A128A11D7270A128A118B
:100F0000A0000A128A11D7270A128A11A1003708F5
:100F1000A3003608A2000A128A15DB240A128A11DD
:100F2000831203132108AB002008AA000A128A15B5
:100F30009F240A128A11831203132808303EB2003C
:100F40003208BC003C08B1003B0884003108831320
:100F500080000130B1003108BB07FF30B10031081B
:100F6000B507350A031DB52FB62F722F0130AE0716
:100F7000FF302E0784000A128A11D7270A128A111D
:100F8000B1003108BC003C08031DC72FC82F112E2B
:100F90003B088400831380010800FF1BD72F8313B5
:100FA0007F1883170008840A0319FF0A0800073016
:100FB0008A000408840A82070034013400340A34A9
:100FC000003464340034E8340334103427345434A7
:100FD0003634473431342D344434473400342534E6
:100FE00030343434643420346D346D34003425347A
:100FF000303434346434003483120313051508008C
:1014F00083120313051108008312031385110800DA
:101500002030831203138606080083160313051286
:101510000611861083160317091009120800831696
:10152000031381128111073081049D30831203134C
:1015300081008B1608008316031386128316031787
:1015400089128316031386130617811315171617AE
:101550008B150800791CAD2AAE2AB62A7910013005
:1015600083120313A0000030A100BA2A83120313D0
:10157000A001A101080083120313A4000A128A1516
:1015800078220A128A15831203132408803E0A1255
:101590008A1572230A128A15080083120313A10008
:1015A000A0013A3021020318D62AD72ADF2A303088
:1015B0002102031CDC2ADD2ADF2AA001A00A200C5C
:1015C0000800831203139F140C1FE72AE82AE42A59
:1015D0001E08A300831603131E0883120313A20020
:1015E0009E01831603139E01831203130C13230819
:1015F000A1002208A00008000A128A1578220A1207
:101600008A1583120313240825040319082B092BB8
:10161000102B0F300A128A1572230A128A15162B04
:101620000C300A128A1572230A128A150800F0007B
:10163000282B1030831203138506332B04308312BA
:1016400003138606332B0230831203138606332BD3
:101650007008013A0319192B033A03191E2B013A9A
:101660000319232B332B0800F2007208F000063018
:101670000310F00CFF3E031D382B70080139F100F8
:101680007108F3007308031D462B472B4D2B7A037B
:10169000031D4B2B4C2B4D2B79147308F000700855
:1016A000FA000800831603130514831603170814A1
:1016B000831203139F171F13831603139F121F1206
:1016C000C330831203139F05831603139F178312DE
:1016D00003131F14073083120313A000A00B6E2BFB
:1016E0000000080083120313A3002308A2000430A3
:1016F0000310A20CFF3E031D782B22080A128A1544
:1017000021250A128A158312031323080A128A1547
:1017100021250A128A15413083120313A200A20B5D
:101720008F2B922B0800803083120313CB064F08B7
:10173000A3004E08A2004D08A1004C08A0004B08D1
:10174000A7004A08A6004908A5004808A4000A12F4
:101750008A1181230A128A15831203132308CB00EE
:101760002208CA002108C9002008C8000800831206
:101770000313A401A501201CBE2BBF2BC52B2208DF
:10178000A4070318A50A2308A50701300310A20D1A
:10179000A30DFF3E031DC62B01300310A10CA00CAE
:1017A000FF3E031DCD2B20082104031DD82BD92B70
:1017B000BB2B2508A1002408A000080083120313F6
:1017C000A800A401A5012008A200A3012208A600E8
:1017D0002308A700281CED2BEE2BF42B2608A407CA
:1017E0000318A50A2708A50701300310A60DA70DA9
:1017F000FF3E031DF52B0310A80C2808031D012C28
:10180000022CEA2B2508A1002408A00008000A12D7
:101810008A11FC270A128A15232C2508FF002408A8
:1018200084000A128A11CD270A128A150A128A1513
:1018300072230A128A15013083120313A4070318B6
:10184000A50A0030A507831203132508FF0024080A
:1018500084000A128A11CD270A128A15003A031D44
:10186000322C332C0D2C0800512C831203138617B5
:101870001A3083120313A300F730A200A20B3E2CF0
:10188000A30B3E2C432C8312031386131A308312AE
:101890000313A300F730A200A20B4C2CA30B4C2C7B
:1018A000512C831203132108A300A003200AA200D5
:1018B0000319A1032308803AFF0080307F02031D33
:1018C000632C013022020318662C672C352C08008B
:1018D0008B1E6B2C6C2C7B2C0B1D6F2C702C7B2C83
:1018E000013083120313E8070318E90A0030E907FF
:1018F0009D3081000B118B1D7E2C7F2C962C0B1C98
:10190000822C832C962C831203130608F40074088F
:10191000F80078080A128A1534230A128A15013051
:101920000A128A1517230A128A150B1077088A00E3
:1019300076088400750E8300FE0E7E0E0900831269
:101940000313280829040319A62CA72CD62CAD01B3
:10195000AD0AB52C01300310A80DA90DFF3E031DE3
:10196000AB2C0130AC002C08AD07A91FB82CB92C4A
:10197000AA2C29082B02031DBF2C28082A02031CAD
:10198000C22CC32CC92C2808AA022908031CAB03AB
:10199000AB0201300310A90CA80CFF3E031DCA2C9A
:1019A0000130AD02031DD52CD62CB92C2B08A90073
:1019B0002A08A800080083120313A501A601200825
:1019C00021040319E42CE52C1C2DA701A70AF32CF4
:1019D00001300310A00DA10DFF3E031DE92C0130C5
:1019E000A4002408A707A11FF62CF72CE82C01302F
:1019F0000310A50DA60DFF3E031DF82C21082302A0
:101A0000031D042D20082202031C072D082D0F2D75
:101A10002008A2022108031CA303A30225140130FD
:101A20000310A10CA00CFF3E031D102D0130A702D6
:101A3000031D1B2D1C2DF72C2608A1002508A00036
:101A4000080083120313A1002118272D2B2D8312C8
:101A5000031307142E2D8312031307102108A0006F
:101A600001300310A00CFF3E031D312D2018392D2D
:101A70003D2D831203138715402D83120313871105
:101A80002108A00002300310A00CFF3E031D432DCF
:101A900020184B2D4F2D831203130716522D83123E
:101AA000031307122108A00003300310A00CFF3E0F
:101AB000031D552D20185D2D612D831203138716EC
:101AC000642D8312031387120614061406140610DD
:101AD00008008316031306108316031709128316D2
:101AE0000313851183160317881183160313051139
:101AF000831603170811C63083120313A4002408A9
:101B00008316031387058312031306100A128A151E
:101B10007C220A128A150A128A1578220A128A155C
:101B2000623083120313A5006530A400A40B962D28
:101B3000A50B962D02300A128A1572230A128A15F5
:101B40000D3083120313A500FB30A400A40BA62DB7
:101B5000A50BA62D28300A128A1572230A128A159F
:101B600008300A128A1572230A128A150F300A12D7
:101B70008A1572230A128A1506300A128A157223F0
:101B80000A128A150800031083120313520D530D15
:101B9000D4005408DA005A08031DCF2DD02DD92DBA
:101BA0000030D3000030D2000030D1000030D0002F
:101BB0003E2E5008D4005108D5005208D6005308D4
:101BC000D7001F300310D70CD60CD50CD40CFF3E19
:101BD000031DE22D5408D8005808D900D217FF3051
:101BE000D005FF30D105FF30D2050030D305963047
:101BF000DA02DA1FFC2DFD2D172E5A08803A973E87
:101C00000318032E042E052ED02D01300310D30C03
:101C1000D20CD10CD00CFF3E031D062E0130D40097
:101C20005408DA07031D152E162E052E2E2E2030F1
:101C30005A02031C1C2E1D2E292ED02D0130D4003B
:101C40000310D00DD10DD20DD30DD40B202E0130A9
:101C5000DA025A08031D2D2E2E2E1E2E59080319A6
:101C6000322E332E3E2ED009D109D209D309D00A03
:101C70000319D10A0319D20A0319D30A08008312DF
:101C80000313A80028080319462E472E5B2EA31F16
:101C90004A2E4B2E5B2E2009AA002109AB002209F7
:101CA000AC002309AD00AA0A0319AB0A0319AC0A58
:101CB0000319AD0A632E2308AD002208AC002108E9
:101CC000AB002008AA002308220421042004031DDD
:101CD0006A2E6B2E742E0030A3000030A20000305C
:101CE000A1000030A000FA2E9630A4002408A9001C
:101CF000862E0130A4002408A90701300310AD0C82
:101D0000AC0CAB0CAA0CFF3E031D7E2EFE302D0545
:101D1000031D8B2E8C2E792EA82E0130A4002408B2
:101D2000A9070130AA07003003180130AB070030C3
:101D300003180130AC07003003180130AD07013043
:101D40000310AD0CAC0CAB0CAA0CFF3E031DA02E77
:101D5000FF302D05031DAD2EAE2E8D2EBA2E013077
:101D6000A9020130A4000310AA0DAB0DAC0DAD0DFE
:101D7000A40BB32EAC1BBD2EBE2EC42E02302902E6
:101D80000318C32EC42EAF2E2918C72EC82ED02E4E
:101D9000FF30AA05FF30AB057F30AC05FF30AD0545
:101DA0000310A90C2908A400A501A601A701183059
:101DB0000310A40DA50DA60DA70DFF3E031DD82EE3
:101DC0002408AA042508AB042608AC042708AD049F
:101DD00028080319EC2EED2EF22EA31FF02EF12E63
:101DE000F22EAD172D08A3002C08A2002B08A1008D
:101DF0002A08A00008000A128A1552230A128A151E
:101E00000A128A158F220A128A150A128A159B2233
:101E10000A128A150A128A1569250A128A150A12E7
:101E20008A1585220A128A158B17643083120313D0
:101E3000A0000030A1000A128A1534240A128A1563
:101E4000003083120313A400A5000A128A15FC2295
:101E50000A128A150B3083120313A4008030A500E8
:101E60000A128A1507240A128A150A128A15AA224A
:101E70000A128A1583120313200821040319412F23
:101E8000422F472F0A128A1580220A128A158312BE
:101E900003136908803AFF0080307F02031D522F30
:101EA00028306802031C552F562FF12F0A128A156D
:101EB000E1220A128A15831203132108E700200881
:101EC000E600E801E90103306702533003196602B6
:101ED000031C6B2F6C2F8D2FE601E7011B30DB00FD
:101EE0005B08AE000030AF00B0005D300A128A110E
:101EF00009260A128A1540300A128A15BB220A12D4
:101F00008A155D3083120313A4000030A5000A1265
:101F10008A1507240A128A15F12F4330CF00963014
:101F2000CE000030CD000030CC006608A00067086D
:101F3000A100A201A30100300A128A153F260A124D
:101F40008A15831203132308B5002208B400210860
:101F5000B3002008B2003E30B100B430B000AF3062
:101F6000AF004F30AE000A128A1120200A128A15E3
:101F7000831203133108CB003008CA002F08C900B0
:101F80002E08C8000A128A1593230A128A15831292
:101F900003134B08D3004A08D2004908D10048086F
:101FA000D0000A128A15C3250A128A158312031358
:101FB0005108E7005008E6001330DB005B08AE0074
:101FC0006708B0006608AF005D300A128A11092662
:101FD0000A128A1540300A128A15BB220A128A1583
:101FE000812F073083120313DC007C30DB00DB0B16
:101FF000F72FDC0BF72F0000352F0A128A110E285D
:04400E00F3EFFFFFCE
:00000001FF
